{
	"contracts/myContract.sol": {
		"Marketplace": {
			"abi": [
				{
					"anonymous": false,
					"inputs": [
						{
							"indexed": true,
							"internalType": "uint256",
							"name": "itemId",
							"type": "uint256"
						},
						{
							"indexed": false,
							"internalType": "string",
							"name": "name",
							"type": "string"
						},
						{
							"indexed": false,
							"internalType": "uint256",
							"name": "price",
							"type": "uint256"
						},
						{
							"indexed": true,
							"internalType": "address",
							"name": "seller",
							"type": "address"
						}
					],
					"name": "ItemListed",
					"type": "event"
				},
				{
					"anonymous": false,
					"inputs": [
						{
							"indexed": true,
							"internalType": "address",
							"name": "userAddress",
							"type": "address"
						},
						{
							"indexed": false,
							"internalType": "string",
							"name": "username",
							"type": "string"
						}
					],
					"name": "UserRegistered",
					"type": "event"
				},
				{
					"inputs": [
						{
							"internalType": "uint256",
							"name": "itemId",
							"type": "uint256"
						}
					],
					"name": "getItem",
					"outputs": [
						{
							"components": [
								{
									"internalType": "string",
									"name": "name",
									"type": "string"
								},
								{
									"internalType": "uint256",
									"name": "price",
									"type": "uint256"
								},
								{
									"internalType": "address",
									"name": "seller",
									"type": "address"
								}
							],
							"internalType": "struct Marketplace.Item",
							"name": "",
							"type": "tuple"
						}
					],
					"stateMutability": "view",
					"type": "function"
				},
				{
					"inputs": [],
					"name": "itemCount",
					"outputs": [
						{
							"internalType": "uint256",
							"name": "",
							"type": "uint256"
						}
					],
					"stateMutability": "view",
					"type": "function"
				},
				{
					"inputs": [
						{
							"internalType": "uint256",
							"name": "",
							"type": "uint256"
						}
					],
					"name": "items",
					"outputs": [
						{
							"internalType": "string",
							"name": "name",
							"type": "string"
						},
						{
							"internalType": "uint256",
							"name": "price",
							"type": "uint256"
						},
						{
							"internalType": "address",
							"name": "seller",
							"type": "address"
						}
					],
					"stateMutability": "view",
					"type": "function"
				},
				{
					"inputs": [
						{
							"internalType": "string",
							"name": "name",
							"type": "string"
						},
						{
							"internalType": "uint256",
							"name": "price",
							"type": "uint256"
						}
					],
					"name": "listItem",
					"outputs": [],
					"stateMutability": "nonpayable",
					"type": "function"
				},
				{
					"inputs": [
						{
							"internalType": "string",
							"name": "username",
							"type": "string"
						}
					],
					"name": "registerUser",
					"outputs": [],
					"stateMutability": "nonpayable",
					"type": "function"
				},
				{
					"inputs": [
						{
							"internalType": "address",
							"name": "",
							"type": "address"
						}
					],
					"name": "users",
					"outputs": [
						{
							"internalType": "string",
							"name": "username",
							"type": "string"
						},
						{
							"internalType": "bool",
							"name": "isRegistered",
							"type": "bool"
						}
					],
					"stateMutability": "view",
					"type": "function"
				}
			],
			"devdoc": {
				"kind": "dev",
				"methods": {},
				"version": 1
			},
			"evm": {
				"assembly": "    /* \"contracts/myContract.sol\":61:1536  contract Marketplace {... */\n  mstore(0x40, 0x80)\n  callvalue\n  dup1\n  iszero\n  tag_1\n  jumpi\n  0x00\n  dup1\n  revert\ntag_1:\n  pop\n  dataSize(sub_0)\n  dup1\n  dataOffset(sub_0)\n  0x00\n  codecopy\n  0x00\n  return\nstop\n\nsub_0: assembly {\n        /* \"contracts/myContract.sol\":61:1536  contract Marketplace {... */\n      mstore(0x40, 0x80)\n      callvalue\n      dup1\n      iszero\n      tag_1\n      jumpi\n      0x00\n      dup1\n      revert\n    tag_1:\n      pop\n      jumpi(tag_2, lt(calldatasize, 0x04))\n      shr(0xe0, calldataload(0x00))\n      dup1\n      0x3129e773\n      eq\n      tag_3\n      jumpi\n      dup1\n      0x6bfb0d01\n      eq\n      tag_4\n      jumpi\n      dup1\n      0x704f1b94\n      eq\n      tag_5\n      jumpi\n      dup1\n      0x8511c937\n      eq\n      tag_6\n      jumpi\n      dup1\n      0xa87430ba\n      eq\n      tag_7\n      jumpi\n      dup1\n      0xbfb231d2\n      eq\n      tag_8\n      jumpi\n    tag_2:\n      0x00\n      dup1\n      revert\n        /* \"contracts/myContract.sol\":1351:1533  function getItem(uint256 itemId) public view returns (Item memory) {... */\n    tag_3:\n      tag_9\n      0x04\n      dup1\n      calldatasize\n      sub\n      dup2\n      add\n      swap1\n      tag_10\n      swap2\n      swap1\n      tag_11\n      jump\t// in\n    tag_10:\n      tag_12\n      jump\t// in\n    tag_9:\n      mload(0x40)\n      tag_13\n      swap2\n      swap1\n      tag_14\n      jump\t// in\n    tag_13:\n      mload(0x40)\n      dup1\n      swap2\n      sub\n      swap1\n      return\n        /* \"contracts/myContract.sol\":360:384  uint256 public itemCount */\n    tag_4:\n      tag_15\n      tag_16\n      jump\t// in\n    tag_15:\n      mload(0x40)\n      tag_17\n      swap2\n      swap1\n      tag_18\n      jump\t// in\n    tag_17:\n      mload(0x40)\n      dup1\n      swap2\n      sub\n      swap1\n      return\n        /* \"contracts/myContract.sol\":607:869  function registerUser(string memory username) public {... */\n    tag_5:\n      tag_19\n      0x04\n      dup1\n      calldatasize\n      sub\n      dup2\n      add\n      swap1\n      tag_20\n      swap2\n      swap1\n      tag_21\n      jump\t// in\n    tag_20:\n      tag_22\n      jump\t// in\n    tag_19:\n      stop\n        /* \"contracts/myContract.sol\":922:1290  function listItem(string memory name, uint256 price) public {... */\n    tag_6:\n      tag_23\n      0x04\n      dup1\n      calldatasize\n      sub\n      dup2\n      add\n      swap1\n      tag_24\n      swap2\n      swap1\n      tag_25\n      jump\t// in\n    tag_24:\n      tag_26\n      jump\t// in\n    tag_23:\n      stop\n        /* \"contracts/myContract.sol\":272:309  mapping(address => User) public users */\n    tag_7:\n      tag_27\n      0x04\n      dup1\n      calldatasize\n      sub\n      dup2\n      add\n      swap1\n      tag_28\n      swap2\n      swap1\n      tag_29\n      jump\t// in\n    tag_28:\n      tag_30\n      jump\t// in\n    tag_27:\n      mload(0x40)\n      tag_31\n      swap3\n      swap2\n      swap1\n      tag_32\n      jump\t// in\n    tag_31:\n      mload(0x40)\n      dup1\n      swap2\n      sub\n      swap1\n      return\n        /* \"contracts/myContract.sol\":316:353  mapping(uint256 => Item) public items */\n    tag_8:\n      tag_33\n      0x04\n      dup1\n      calldatasize\n      sub\n      dup2\n      add\n      swap1\n      tag_34\n      swap2\n      swap1\n      tag_11\n      jump\t// in\n    tag_34:\n      tag_35\n      jump\t// in\n    tag_33:\n      mload(0x40)\n      tag_36\n      swap4\n      swap3\n      swap2\n      swap1\n      tag_37\n      jump\t// in\n    tag_36:\n      mload(0x40)\n      dup1\n      swap2\n      sub\n      swap1\n      return\n        /* \"contracts/myContract.sol\":1351:1533  function getItem(uint256 itemId) public view returns (Item memory) {... */\n    tag_12:\n        /* \"contracts/myContract.sol\":1405:1416  Item memory */\n      tag_38\n      tag_39\n      jump\t// in\n    tag_38:\n        /* \"contracts/myContract.sol\":1446:1447  0 */\n      0x00\n        /* \"contracts/myContract.sol\":1437:1443  itemId */\n      dup3\n        /* \"contracts/myContract.sol\":1437:1447  itemId > 0 */\n      gt\n        /* \"contracts/myContract.sol\":1437:1470  itemId > 0 && itemId <= itemCount */\n      dup1\n      iszero\n      tag_41\n      jumpi\n      pop\n        /* \"contracts/myContract.sol\":1461:1470  itemCount */\n      sload(0x02)\n        /* \"contracts/myContract.sol\":1451:1457  itemId */\n      dup3\n        /* \"contracts/myContract.sol\":1451:1470  itemId <= itemCount */\n      gt\n      iszero\n        /* \"contracts/myContract.sol\":1437:1470  itemId > 0 && itemId <= itemCount */\n    tag_41:\n        /* \"contracts/myContract.sol\":1429:1494  require(itemId > 0 && itemId <= itemCount, \"Item does not exist\") */\n      tag_42\n      jumpi\n      mload(0x40)\n      0x08c379a000000000000000000000000000000000000000000000000000000000\n      dup2\n      mstore\n      0x04\n      add\n      tag_43\n      swap1\n      tag_44\n      jump\t// in\n    tag_43:\n      mload(0x40)\n      dup1\n      swap2\n      sub\n      swap1\n      revert\n    tag_42:\n        /* \"contracts/myContract.sol\":1512:1517  items */\n      0x01\n        /* \"contracts/myContract.sol\":1512:1525  items[itemId] */\n      0x00\n        /* \"contracts/myContract.sol\":1518:1524  itemId */\n      dup4\n        /* \"contracts/myContract.sol\":1512:1525  items[itemId] */\n      dup2\n      mstore\n      0x20\n      add\n      swap1\n      dup2\n      mstore\n      0x20\n      add\n      0x00\n      keccak256\n        /* \"contracts/myContract.sol\":1505:1525  return items[itemId] */\n      mload(0x40)\n      dup1\n      0x60\n      add\n      0x40\n      mstore\n      swap1\n      dup2\n      0x00\n      dup3\n      add\n      dup1\n      sload\n      tag_45\n      swap1\n      tag_46\n      jump\t// in\n    tag_45:\n      dup1\n      0x1f\n      add\n      0x20\n      dup1\n      swap2\n      div\n      mul\n      0x20\n      add\n      mload(0x40)\n      swap1\n      dup2\n      add\n      0x40\n      mstore\n      dup1\n      swap3\n      swap2\n      swap1\n      dup2\n      dup2\n      mstore\n      0x20\n      add\n      dup3\n      dup1\n      sload\n      tag_47\n      swap1\n      tag_46\n      jump\t// in\n    tag_47:\n      dup1\n      iszero\n      tag_48\n      jumpi\n      dup1\n      0x1f\n      lt\n      tag_49\n      jumpi\n      0x0100\n      dup1\n      dup4\n      sload\n      div\n      mul\n      dup4\n      mstore\n      swap2\n      0x20\n      add\n      swap2\n      jump(tag_48)\n    tag_49:\n      dup3\n      add\n      swap2\n      swap1\n      0x00\n      mstore\n      keccak256(0x00, 0x20)\n      swap1\n    tag_50:\n      dup2\n      sload\n      dup2\n      mstore\n      swap1\n      0x01\n      add\n      swap1\n      0x20\n      add\n      dup1\n      dup4\n      gt\n      tag_50\n      jumpi\n      dup3\n      swap1\n      sub\n      0x1f\n      and\n      dup3\n      add\n      swap2\n    tag_48:\n      pop\n      pop\n      pop\n      pop\n      pop\n      dup2\n      mstore\n      0x20\n      add\n      0x01\n      dup3\n      add\n      sload\n      dup2\n      mstore\n      0x20\n      add\n      0x02\n      dup3\n      add\n      0x00\n      swap1\n      sload\n      swap1\n      0x0100\n      exp\n      swap1\n      div\n      0xffffffffffffffffffffffffffffffffffffffff\n      and\n      0xffffffffffffffffffffffffffffffffffffffff\n      and\n      0xffffffffffffffffffffffffffffffffffffffff\n      and\n      dup2\n      mstore\n      pop\n      pop\n      swap1\n      pop\n        /* \"contracts/myContract.sol\":1351:1533  function getItem(uint256 itemId) public view returns (Item memory) {... */\n      swap2\n      swap1\n      pop\n      jump\t// out\n        /* \"contracts/myContract.sol\":360:384  uint256 public itemCount */\n    tag_16:\n      sload(0x02)\n      dup2\n      jump\t// out\n        /* \"contracts/myContract.sol\":607:869  function registerUser(string memory username) public {... */\n    tag_22:\n        /* \"contracts/myContract.sol\":680:685  users */\n      0x00\n        /* \"contracts/myContract.sol\":680:697  users[msg.sender] */\n      dup1\n        /* \"contracts/myContract.sol\":686:696  msg.sender */\n      caller\n        /* \"contracts/myContract.sol\":680:697  users[msg.sender] */\n      0xffffffffffffffffffffffffffffffffffffffff\n      and\n      0xffffffffffffffffffffffffffffffffffffffff\n      and\n      dup2\n      mstore\n      0x20\n      add\n      swap1\n      dup2\n      mstore\n      0x20\n      add\n      0x00\n      keccak256\n        /* \"contracts/myContract.sol\":680:710  users[msg.sender].isRegistered */\n      0x01\n      add\n      0x00\n      swap1\n      sload\n      swap1\n      0x0100\n      exp\n      swap1\n      div\n      0xff\n      and\n        /* \"contracts/myContract.sol\":679:710  !users[msg.sender].isRegistered */\n      iszero\n        /* \"contracts/myContract.sol\":671:738  require(!users[msg.sender].isRegistered, \"User already registered\") */\n      tag_52\n      jumpi\n      mload(0x40)\n      0x08c379a000000000000000000000000000000000000000000000000000000000\n      dup2\n      mstore\n      0x04\n      add\n      tag_53\n      swap1\n      tag_54\n      jump\t// in\n    tag_53:\n      mload(0x40)\n      dup1\n      swap2\n      sub\n      swap1\n      revert\n    tag_52:\n        /* \"contracts/myContract.sol\":779:799  User(username, true) */\n      mload(0x40)\n      dup1\n      0x40\n      add\n      0x40\n      mstore\n      dup1\n        /* \"contracts/myContract.sol\":784:792  username */\n      dup3\n        /* \"contracts/myContract.sol\":779:799  User(username, true) */\n      dup2\n      mstore\n      0x20\n      add\n        /* \"contracts/myContract.sol\":794:798  true */\n      0x01\n        /* \"contracts/myContract.sol\":779:799  User(username, true) */\n      iszero\n      iszero\n      dup2\n      mstore\n      pop\n        /* \"contracts/myContract.sol\":759:764  users */\n      0x00\n        /* \"contracts/myContract.sol\":759:776  users[msg.sender] */\n      dup1\n        /* \"contracts/myContract.sol\":765:775  msg.sender */\n      caller\n        /* \"contracts/myContract.sol\":759:776  users[msg.sender] */\n      0xffffffffffffffffffffffffffffffffffffffff\n      and\n      0xffffffffffffffffffffffffffffffffffffffff\n      and\n      dup2\n      mstore\n      0x20\n      add\n      swap1\n      dup2\n      mstore\n      0x20\n      add\n      0x00\n      keccak256\n        /* \"contracts/myContract.sol\":759:799  users[msg.sender] = User(username, true) */\n      0x00\n      dup3\n      add\n      mload\n      dup2\n      0x00\n      add\n      swap1\n      dup2\n      tag_55\n      swap2\n      swap1\n      tag_56\n      jump\t// in\n    tag_55:\n      pop\n      0x20\n      dup3\n      add\n      mload\n      dup2\n      0x01\n      add\n      exp(0x0100, 0x00)\n      dup2\n      sload\n      dup2\n      0xff\n      mul\n      not\n      and\n      swap1\n      dup4\n      iszero\n      iszero\n      mul\n      or\n      swap1\n      sstore\n      pop\n      swap1\n      pop\n      pop\n        /* \"contracts/myContract.sol\":840:850  msg.sender */\n      caller\n        /* \"contracts/myContract.sol\":825:861  UserRegistered(msg.sender, username) */\n      0xffffffffffffffffffffffffffffffffffffffff\n      and\n      0x48cac28ad4dc618e15f4c2dd5e97751182f166de97b25618318b2112aa951a2f\n        /* \"contracts/myContract.sol\":852:860  username */\n      dup3\n        /* \"contracts/myContract.sol\":825:861  UserRegistered(msg.sender, username) */\n      mload(0x40)\n      tag_57\n      swap2\n      swap1\n      tag_58\n      jump\t// in\n    tag_57:\n      mload(0x40)\n      dup1\n      swap2\n      sub\n      swap1\n      log2\n        /* \"contracts/myContract.sol\":607:869  function registerUser(string memory username) public {... */\n      pop\n      jump\t// out\n        /* \"contracts/myContract.sol\":922:1290  function listItem(string memory name, uint256 price) public {... */\n    tag_26:\n        /* \"contracts/myContract.sol\":1001:1006  users */\n      0x00\n        /* \"contracts/myContract.sol\":1001:1018  users[msg.sender] */\n      dup1\n        /* \"contracts/myContract.sol\":1007:1017  msg.sender */\n      caller\n        /* \"contracts/myContract.sol\":1001:1018  users[msg.sender] */\n      0xffffffffffffffffffffffffffffffffffffffff\n      and\n      0xffffffffffffffffffffffffffffffffffffffff\n      and\n      dup2\n      mstore\n      0x20\n      add\n      swap1\n      dup2\n      mstore\n      0x20\n      add\n      0x00\n      keccak256\n        /* \"contracts/myContract.sol\":1001:1031  users[msg.sender].isRegistered */\n      0x01\n      add\n      0x00\n      swap1\n      sload\n      swap1\n      0x0100\n      exp\n      swap1\n      div\n      0xff\n      and\n        /* \"contracts/myContract.sol\":993:1055  require(users[msg.sender].isRegistered, \"User not registered\") */\n      tag_60\n      jumpi\n      mload(0x40)\n      0x08c379a000000000000000000000000000000000000000000000000000000000\n      dup2\n      mstore\n      0x04\n      add\n      tag_61\n      swap1\n      tag_62\n      jump\t// in\n    tag_61:\n      mload(0x40)\n      dup1\n      swap2\n      sub\n      swap1\n      revert\n    tag_60:\n        /* \"contracts/myContract.sol\":1082:1083  0 */\n      0x00\n        /* \"contracts/myContract.sol\":1074:1079  price */\n      dup2\n        /* \"contracts/myContract.sol\":1074:1083  price > 0 */\n      gt\n        /* \"contracts/myContract.sol\":1066:1119  require(price > 0, \"Price must be greater than zero\") */\n      tag_63\n      jumpi\n      mload(0x40)\n      0x08c379a000000000000000000000000000000000000000000000000000000000\n      dup2\n      mstore\n      0x04\n      add\n      tag_64\n      swap1\n      tag_65\n      jump\t// in\n    tag_64:\n      mload(0x40)\n      dup1\n      swap2\n      sub\n      swap1\n      revert\n    tag_63:\n        /* \"contracts/myContract.sol\":1140:1149  itemCount */\n      0x02\n      0x00\n        /* \"contracts/myContract.sol\":1140:1151  itemCount++ */\n      dup2\n      sload\n      dup1\n      swap3\n      swap2\n      swap1\n      tag_66\n      swap1\n      tag_67\n      jump\t// in\n    tag_66:\n      swap2\n      swap1\n      pop\n      sstore\n      pop\n        /* \"contracts/myContract.sol\":1181:1210  Item(name, price, msg.sender) */\n      mload(0x40)\n      dup1\n      0x60\n      add\n      0x40\n      mstore\n      dup1\n        /* \"contracts/myContract.sol\":1186:1190  name */\n      dup4\n        /* \"contracts/myContract.sol\":1181:1210  Item(name, price, msg.sender) */\n      dup2\n      mstore\n      0x20\n      add\n        /* \"contracts/myContract.sol\":1192:1197  price */\n      dup3\n        /* \"contracts/myContract.sol\":1181:1210  Item(name, price, msg.sender) */\n      dup2\n      mstore\n      0x20\n      add\n        /* \"contracts/myContract.sol\":1199:1209  msg.sender */\n      caller\n        /* \"contracts/myContract.sol\":1181:1210  Item(name, price, msg.sender) */\n      0xffffffffffffffffffffffffffffffffffffffff\n      and\n      dup2\n      mstore\n      pop\n        /* \"contracts/myContract.sol\":1162:1167  items */\n      0x01\n        /* \"contracts/myContract.sol\":1162:1178  items[itemCount] */\n      0x00\n        /* \"contracts/myContract.sol\":1168:1177  itemCount */\n      sload(0x02)\n        /* \"contracts/myContract.sol\":1162:1178  items[itemCount] */\n      dup2\n      mstore\n      0x20\n      add\n      swap1\n      dup2\n      mstore\n      0x20\n      add\n      0x00\n      keccak256\n        /* \"contracts/myContract.sol\":1162:1210  items[itemCount] = Item(name, price, msg.sender) */\n      0x00\n      dup3\n      add\n      mload\n      dup2\n      0x00\n      add\n      swap1\n      dup2\n      tag_68\n      swap2\n      swap1\n      tag_56\n      jump\t// in\n    tag_68:\n      pop\n      0x20\n      dup3\n      add\n      mload\n      dup2\n      0x01\n      add\n      sstore\n      0x40\n      dup3\n      add\n      mload\n      dup2\n      0x02\n      add\n      exp(0x0100, 0x00)\n      dup2\n      sload\n      dup2\n      0xffffffffffffffffffffffffffffffffffffffff\n      mul\n      not\n      and\n      swap1\n      dup4\n      0xffffffffffffffffffffffffffffffffffffffff\n      and\n      mul\n      or\n      swap1\n      sstore\n      pop\n      swap1\n      pop\n      pop\n        /* \"contracts/myContract.sol\":1271:1281  msg.sender */\n      caller\n        /* \"contracts/myContract.sol\":1236:1282  ItemListed(itemCount, name, price, msg.sender) */\n      0xffffffffffffffffffffffffffffffffffffffff\n      and\n        /* \"contracts/myContract.sol\":1247:1256  itemCount */\n      sload(0x02)\n        /* \"contracts/myContract.sol\":1236:1282  ItemListed(itemCount, name, price, msg.sender) */\n      0x16244e47af8a7d2c923faa2cab44315c0514c7aa830682bbb9cc8f0d37ad7548\n        /* \"contracts/myContract.sol\":1258:1262  name */\n      dup5\n        /* \"contracts/myContract.sol\":1264:1269  price */\n      dup5\n        /* \"contracts/myContract.sol\":1236:1282  ItemListed(itemCount, name, price, msg.sender) */\n      mload(0x40)\n      tag_69\n      swap3\n      swap2\n      swap1\n      tag_70\n      jump\t// in\n    tag_69:\n      mload(0x40)\n      dup1\n      swap2\n      sub\n      swap1\n      log3\n        /* \"contracts/myContract.sol\":922:1290  function listItem(string memory name, uint256 price) public {... */\n      pop\n      pop\n      jump\t// out\n        /* \"contracts/myContract.sol\":272:309  mapping(address => User) public users */\n    tag_30:\n      mstore(0x20, 0x00)\n      dup1\n      0x00\n      mstore\n      keccak256(0x00, 0x40)\n      0x00\n      swap2\n      pop\n      swap1\n      pop\n      dup1\n      0x00\n      add\n      dup1\n      sload\n      tag_71\n      swap1\n      tag_46\n      jump\t// in\n    tag_71:\n      dup1\n      0x1f\n      add\n      0x20\n      dup1\n      swap2\n      div\n      mul\n      0x20\n      add\n      mload(0x40)\n      swap1\n      dup2\n      add\n      0x40\n      mstore\n      dup1\n      swap3\n      swap2\n      swap1\n      dup2\n      dup2\n      mstore\n      0x20\n      add\n      dup3\n      dup1\n      sload\n      tag_72\n      swap1\n      tag_46\n      jump\t// in\n    tag_72:\n      dup1\n      iszero\n      tag_73\n      jumpi\n      dup1\n      0x1f\n      lt\n      tag_74\n      jumpi\n      0x0100\n      dup1\n      dup4\n      sload\n      div\n      mul\n      dup4\n      mstore\n      swap2\n      0x20\n      add\n      swap2\n      jump(tag_73)\n    tag_74:\n      dup3\n      add\n      swap2\n      swap1\n      0x00\n      mstore\n      keccak256(0x00, 0x20)\n      swap1\n    tag_75:\n      dup2\n      sload\n      dup2\n      mstore\n      swap1\n      0x01\n      add\n      swap1\n      0x20\n      add\n      dup1\n      dup4\n      gt\n      tag_75\n      jumpi\n      dup3\n      swap1\n      sub\n      0x1f\n      and\n      dup3\n      add\n      swap2\n    tag_73:\n      pop\n      pop\n      pop\n      pop\n      pop\n      swap1\n      dup1\n      0x01\n      add\n      0x00\n      swap1\n      sload\n      swap1\n      0x0100\n      exp\n      swap1\n      div\n      0xff\n      and\n      swap1\n      pop\n      dup3\n      jump\t// out\n        /* \"contracts/myContract.sol\":316:353  mapping(uint256 => Item) public items */\n    tag_35:\n      mstore(0x20, 0x01)\n      dup1\n      0x00\n      mstore\n      keccak256(0x00, 0x40)\n      0x00\n      swap2\n      pop\n      swap1\n      pop\n      dup1\n      0x00\n      add\n      dup1\n      sload\n      tag_76\n      swap1\n      tag_46\n      jump\t// in\n    tag_76:\n      dup1\n      0x1f\n      add\n      0x20\n      dup1\n      swap2\n      div\n      mul\n      0x20\n      add\n      mload(0x40)\n      swap1\n      dup2\n      add\n      0x40\n      mstore\n      dup1\n      swap3\n      swap2\n      swap1\n      dup2\n      dup2\n      mstore\n      0x20\n      add\n      dup3\n      dup1\n      sload\n      tag_77\n      swap1\n      tag_46\n      jump\t// in\n    tag_77:\n      dup1\n      iszero\n      tag_78\n      jumpi\n      dup1\n      0x1f\n      lt\n      tag_79\n      jumpi\n      0x0100\n      dup1\n      dup4\n      sload\n      div\n      mul\n      dup4\n      mstore\n      swap2\n      0x20\n      add\n      swap2\n      jump(tag_78)\n    tag_79:\n      dup3\n      add\n      swap2\n      swap1\n      0x00\n      mstore\n      keccak256(0x00, 0x20)\n      swap1\n    tag_80:\n      dup2\n      sload\n      dup2\n      mstore\n      swap1\n      0x01\n      add\n      swap1\n      0x20\n      add\n      dup1\n      dup4\n      gt\n      tag_80\n      jumpi\n      dup3\n      swap1\n      sub\n      0x1f\n      and\n      dup3\n      add\n      swap2\n    tag_78:\n      pop\n      pop\n      pop\n      pop\n      pop\n      swap1\n      dup1\n      0x01\n      add\n      sload\n      swap1\n      dup1\n      0x02\n      add\n      0x00\n      swap1\n      sload\n      swap1\n      0x0100\n      exp\n      swap1\n      div\n      0xffffffffffffffffffffffffffffffffffffffff\n      and\n      swap1\n      pop\n      dup4\n      jump\t// out\n    tag_39:\n      mload(0x40)\n      dup1\n      0x60\n      add\n      0x40\n      mstore\n      dup1\n      0x60\n      dup2\n      mstore\n      0x20\n      add\n      0x00\n      dup2\n      mstore\n      0x20\n      add\n      and(0xffffffffffffffffffffffffffffffffffffffff, 0x00)\n      dup2\n      mstore\n      pop\n      swap1\n      jump\t// out\n        /* \"#utility.yul\":7:82   */\n    tag_81:\n        /* \"#utility.yul\":40:46   */\n      0x00\n        /* \"#utility.yul\":73:75   */\n      0x40\n        /* \"#utility.yul\":67:76   */\n      mload\n        /* \"#utility.yul\":57:76   */\n      swap1\n      pop\n        /* \"#utility.yul\":7:82   */\n      swap1\n      jump\t// out\n        /* \"#utility.yul\":88:205   */\n    tag_82:\n        /* \"#utility.yul\":197:198   */\n      0x00\n        /* \"#utility.yul\":194:195   */\n      dup1\n        /* \"#utility.yul\":187:199   */\n      revert\n        /* \"#utility.yul\":211:328   */\n    tag_83:\n        /* \"#utility.yul\":320:321   */\n      0x00\n        /* \"#utility.yul\":317:318   */\n      dup1\n        /* \"#utility.yul\":310:322   */\n      revert\n        /* \"#utility.yul\":334:411   */\n    tag_84:\n        /* \"#utility.yul\":371:378   */\n      0x00\n        /* \"#utility.yul\":400:405   */\n      dup2\n        /* \"#utility.yul\":389:405   */\n      swap1\n      pop\n        /* \"#utility.yul\":334:411   */\n      swap2\n      swap1\n      pop\n      jump\t// out\n        /* \"#utility.yul\":417:539   */\n    tag_85:\n        /* \"#utility.yul\":490:514   */\n      tag_145\n        /* \"#utility.yul\":508:513   */\n      dup2\n        /* \"#utility.yul\":490:514   */\n      tag_84\n      jump\t// in\n    tag_145:\n        /* \"#utility.yul\":483:488   */\n      dup2\n        /* \"#utility.yul\":480:515   */\n      eq\n        /* \"#utility.yul\":470:533   */\n      tag_146\n      jumpi\n        /* \"#utility.yul\":529:530   */\n      0x00\n        /* \"#utility.yul\":526:527   */\n      dup1\n        /* \"#utility.yul\":519:531   */\n      revert\n        /* \"#utility.yul\":470:533   */\n    tag_146:\n        /* \"#utility.yul\":417:539   */\n      pop\n      jump\t// out\n        /* \"#utility.yul\":545:684   */\n    tag_86:\n        /* \"#utility.yul\":591:596   */\n      0x00\n        /* \"#utility.yul\":629:635   */\n      dup2\n        /* \"#utility.yul\":616:636   */\n      calldataload\n        /* \"#utility.yul\":607:636   */\n      swap1\n      pop\n        /* \"#utility.yul\":645:678   */\n      tag_148\n        /* \"#utility.yul\":672:677   */\n      dup2\n        /* \"#utility.yul\":645:678   */\n      tag_85\n      jump\t// in\n    tag_148:\n        /* \"#utility.yul\":545:684   */\n      swap3\n      swap2\n      pop\n      pop\n      jump\t// out\n        /* \"#utility.yul\":690:1019   */\n    tag_11:\n        /* \"#utility.yul\":749:755   */\n      0x00\n        /* \"#utility.yul\":798:800   */\n      0x20\n        /* \"#utility.yul\":786:795   */\n      dup3\n        /* \"#utility.yul\":777:784   */\n      dup5\n        /* \"#utility.yul\":773:796   */\n      sub\n        /* \"#utility.yul\":769:801   */\n      slt\n        /* \"#utility.yul\":766:885   */\n      iszero\n      tag_150\n      jumpi\n        /* \"#utility.yul\":804:883   */\n      tag_151\n      tag_82\n      jump\t// in\n    tag_151:\n        /* \"#utility.yul\":766:885   */\n    tag_150:\n        /* \"#utility.yul\":924:925   */\n      0x00\n        /* \"#utility.yul\":949:1002   */\n      tag_152\n        /* \"#utility.yul\":994:1001   */\n      dup5\n        /* \"#utility.yul\":985:991   */\n      dup3\n        /* \"#utility.yul\":974:983   */\n      dup6\n        /* \"#utility.yul\":970:992   */\n      add\n        /* \"#utility.yul\":949:1002   */\n      tag_86\n      jump\t// in\n    tag_152:\n        /* \"#utility.yul\":939:1002   */\n      swap2\n      pop\n        /* \"#utility.yul\":895:1012   */\n      pop\n        /* \"#utility.yul\":690:1019   */\n      swap3\n      swap2\n      pop\n      pop\n      jump\t// out\n        /* \"#utility.yul\":1025:1124   */\n    tag_87:\n        /* \"#utility.yul\":1077:1083   */\n      0x00\n        /* \"#utility.yul\":1111:1116   */\n      dup2\n        /* \"#utility.yul\":1105:1117   */\n      mload\n        /* \"#utility.yul\":1095:1117   */\n      swap1\n      pop\n        /* \"#utility.yul\":1025:1124   */\n      swap2\n      swap1\n      pop\n      jump\t// out\n        /* \"#utility.yul\":1130:1289   */\n    tag_88:\n        /* \"#utility.yul\":1204:1215   */\n      0x00\n        /* \"#utility.yul\":1238:1244   */\n      dup3\n        /* \"#utility.yul\":1233:1236   */\n      dup3\n        /* \"#utility.yul\":1226:1245   */\n      mstore\n        /* \"#utility.yul\":1278:1282   */\n      0x20\n        /* \"#utility.yul\":1273:1276   */\n      dup3\n        /* \"#utility.yul\":1269:1283   */\n      add\n        /* \"#utility.yul\":1254:1283   */\n      swap1\n      pop\n        /* \"#utility.yul\":1130:1289   */\n      swap3\n      swap2\n      pop\n      pop\n      jump\t// out\n        /* \"#utility.yul\":1295:1434   */\n    tag_89:\n        /* \"#utility.yul\":1384:1390   */\n      dup3\n        /* \"#utility.yul\":1379:1382   */\n      dup2\n        /* \"#utility.yul\":1374:1377   */\n      dup4\n        /* \"#utility.yul\":1368:1391   */\n      mcopy\n        /* \"#utility.yul\":1425:1426   */\n      0x00\n        /* \"#utility.yul\":1416:1422   */\n      dup4\n        /* \"#utility.yul\":1411:1414   */\n      dup4\n        /* \"#utility.yul\":1407:1423   */\n      add\n        /* \"#utility.yul\":1400:1427   */\n      mstore\n        /* \"#utility.yul\":1295:1434   */\n      pop\n      pop\n      pop\n      jump\t// out\n        /* \"#utility.yul\":1440:1542   */\n    tag_90:\n        /* \"#utility.yul\":1481:1487   */\n      0x00\n        /* \"#utility.yul\":1532:1534   */\n      0x1f\n        /* \"#utility.yul\":1528:1535   */\n      not\n        /* \"#utility.yul\":1523:1525   */\n      0x1f\n        /* \"#utility.yul\":1516:1521   */\n      dup4\n        /* \"#utility.yul\":1512:1526   */\n      add\n        /* \"#utility.yul\":1508:1536   */\n      and\n        /* \"#utility.yul\":1498:1536   */\n      swap1\n      pop\n        /* \"#utility.yul\":1440:1542   */\n      swap2\n      swap1\n      pop\n      jump\t// out\n        /* \"#utility.yul\":1548:1905   */\n    tag_91:\n        /* \"#utility.yul\":1626:1629   */\n      0x00\n        /* \"#utility.yul\":1654:1693   */\n      tag_158\n        /* \"#utility.yul\":1687:1692   */\n      dup3\n        /* \"#utility.yul\":1654:1693   */\n      tag_87\n      jump\t// in\n    tag_158:\n        /* \"#utility.yul\":1709:1770   */\n      tag_159\n        /* \"#utility.yul\":1763:1769   */\n      dup2\n        /* \"#utility.yul\":1758:1761   */\n      dup6\n        /* \"#utility.yul\":1709:1770   */\n      tag_88\n      jump\t// in\n    tag_159:\n        /* \"#utility.yul\":1702:1770   */\n      swap4\n      pop\n        /* \"#utility.yul\":1779:1844   */\n      tag_160\n        /* \"#utility.yul\":1837:1843   */\n      dup2\n        /* \"#utility.yul\":1832:1835   */\n      dup6\n        /* \"#utility.yul\":1825:1829   */\n      0x20\n        /* \"#utility.yul\":1818:1823   */\n      dup7\n        /* \"#utility.yul\":1814:1830   */\n      add\n        /* \"#utility.yul\":1779:1844   */\n      tag_89\n      jump\t// in\n    tag_160:\n        /* \"#utility.yul\":1869:1898   */\n      tag_161\n        /* \"#utility.yul\":1891:1897   */\n      dup2\n        /* \"#utility.yul\":1869:1898   */\n      tag_90\n      jump\t// in\n    tag_161:\n        /* \"#utility.yul\":1864:1867   */\n      dup5\n        /* \"#utility.yul\":1860:1899   */\n      add\n        /* \"#utility.yul\":1853:1899   */\n      swap2\n      pop\n        /* \"#utility.yul\":1630:1905   */\n      pop\n        /* \"#utility.yul\":1548:1905   */\n      swap3\n      swap2\n      pop\n      pop\n      jump\t// out\n        /* \"#utility.yul\":1911:2019   */\n    tag_92:\n        /* \"#utility.yul\":1988:2012   */\n      tag_163\n        /* \"#utility.yul\":2006:2011   */\n      dup2\n        /* \"#utility.yul\":1988:2012   */\n      tag_84\n      jump\t// in\n    tag_163:\n        /* \"#utility.yul\":1983:1986   */\n      dup3\n        /* \"#utility.yul\":1976:2013   */\n      mstore\n        /* \"#utility.yul\":1911:2019   */\n      pop\n      pop\n      jump\t// out\n        /* \"#utility.yul\":2025:2151   */\n    tag_93:\n        /* \"#utility.yul\":2062:2069   */\n      0x00\n        /* \"#utility.yul\":2102:2144   */\n      0xffffffffffffffffffffffffffffffffffffffff\n        /* \"#utility.yul\":2095:2100   */\n      dup3\n        /* \"#utility.yul\":2091:2145   */\n      and\n        /* \"#utility.yul\":2080:2145   */\n      swap1\n      pop\n        /* \"#utility.yul\":2025:2151   */\n      swap2\n      swap1\n      pop\n      jump\t// out\n        /* \"#utility.yul\":2157:2253   */\n    tag_94:\n        /* \"#utility.yul\":2194:2201   */\n      0x00\n        /* \"#utility.yul\":2223:2247   */\n      tag_166\n        /* \"#utility.yul\":2241:2246   */\n      dup3\n        /* \"#utility.yul\":2223:2247   */\n      tag_93\n      jump\t// in\n    tag_166:\n        /* \"#utility.yul\":2212:2247   */\n      swap1\n      pop\n        /* \"#utility.yul\":2157:2253   */\n      swap2\n      swap1\n      pop\n      jump\t// out\n        /* \"#utility.yul\":2259:2367   */\n    tag_95:\n        /* \"#utility.yul\":2336:2360   */\n      tag_168\n        /* \"#utility.yul\":2354:2359   */\n      dup2\n        /* \"#utility.yul\":2336:2360   */\n      tag_94\n      jump\t// in\n    tag_168:\n        /* \"#utility.yul\":2331:2334   */\n      dup3\n        /* \"#utility.yul\":2324:2361   */\n      mstore\n        /* \"#utility.yul\":2259:2367   */\n      pop\n      pop\n      jump\t// out\n        /* \"#utility.yul\":2431:3202   */\n    tag_96:\n        /* \"#utility.yul\":2538:2541   */\n      0x00\n        /* \"#utility.yul\":2574:2578   */\n      0x60\n        /* \"#utility.yul\":2569:2572   */\n      dup4\n        /* \"#utility.yul\":2565:2579   */\n      add\n        /* \"#utility.yul\":2661:2665   */\n      0x00\n        /* \"#utility.yul\":2654:2659   */\n      dup4\n        /* \"#utility.yul\":2650:2666   */\n      add\n        /* \"#utility.yul\":2644:2667   */\n      mload\n        /* \"#utility.yul\":2714:2717   */\n      dup5\n        /* \"#utility.yul\":2708:2712   */\n      dup3\n        /* \"#utility.yul\":2704:2718   */\n      sub\n        /* \"#utility.yul\":2697:2701   */\n      0x00\n        /* \"#utility.yul\":2692:2695   */\n      dup7\n        /* \"#utility.yul\":2688:2702   */\n      add\n        /* \"#utility.yul\":2681:2719   */\n      mstore\n        /* \"#utility.yul\":2740:2813   */\n      tag_170\n        /* \"#utility.yul\":2808:2812   */\n      dup3\n        /* \"#utility.yul\":2794:2806   */\n      dup3\n        /* \"#utility.yul\":2740:2813   */\n      tag_91\n      jump\t// in\n    tag_170:\n        /* \"#utility.yul\":2732:2813   */\n      swap2\n      pop\n        /* \"#utility.yul\":2589:2824   */\n      pop\n        /* \"#utility.yul\":2907:2911   */\n      0x20\n        /* \"#utility.yul\":2900:2905   */\n      dup4\n        /* \"#utility.yul\":2896:2912   */\n      add\n        /* \"#utility.yul\":2890:2913   */\n      mload\n        /* \"#utility.yul\":2926:2989   */\n      tag_171\n        /* \"#utility.yul\":2983:2987   */\n      0x20\n        /* \"#utility.yul\":2978:2981   */\n      dup7\n        /* \"#utility.yul\":2974:2988   */\n      add\n        /* \"#utility.yul\":2960:2972   */\n      dup3\n        /* \"#utility.yul\":2926:2989   */\n      tag_92\n      jump\t// in\n    tag_171:\n        /* \"#utility.yul\":2834:2999   */\n      pop\n        /* \"#utility.yul\":3083:3087   */\n      0x40\n        /* \"#utility.yul\":3076:3081   */\n      dup4\n        /* \"#utility.yul\":3072:3088   */\n      add\n        /* \"#utility.yul\":3066:3089   */\n      mload\n        /* \"#utility.yul\":3102:3165   */\n      tag_172\n        /* \"#utility.yul\":3159:3163   */\n      0x40\n        /* \"#utility.yul\":3154:3157   */\n      dup7\n        /* \"#utility.yul\":3150:3164   */\n      add\n        /* \"#utility.yul\":3136:3148   */\n      dup3\n        /* \"#utility.yul\":3102:3165   */\n      tag_95\n      jump\t// in\n    tag_172:\n        /* \"#utility.yul\":3009:3175   */\n      pop\n        /* \"#utility.yul\":3192:3196   */\n      dup1\n        /* \"#utility.yul\":3185:3196   */\n      swap2\n      pop\n        /* \"#utility.yul\":2543:3202   */\n      pop\n        /* \"#utility.yul\":2431:3202   */\n      swap3\n      swap2\n      pop\n      pop\n      jump\t// out\n        /* \"#utility.yul\":3208:3557   */\n    tag_14:\n        /* \"#utility.yul\":3339:3343   */\n      0x00\n        /* \"#utility.yul\":3377:3379   */\n      0x20\n        /* \"#utility.yul\":3366:3375   */\n      dup3\n        /* \"#utility.yul\":3362:3380   */\n      add\n        /* \"#utility.yul\":3354:3380   */\n      swap1\n      pop\n        /* \"#utility.yul\":3426:3435   */\n      dup2\n        /* \"#utility.yul\":3420:3424   */\n      dup2\n        /* \"#utility.yul\":3416:3436   */\n      sub\n        /* \"#utility.yul\":3412:3413   */\n      0x00\n        /* \"#utility.yul\":3401:3410   */\n      dup4\n        /* \"#utility.yul\":3397:3414   */\n      add\n        /* \"#utility.yul\":3390:3437   */\n      mstore\n        /* \"#utility.yul\":3454:3550   */\n      tag_174\n        /* \"#utility.yul\":3545:3549   */\n      dup2\n        /* \"#utility.yul\":3536:3542   */\n      dup5\n        /* \"#utility.yul\":3454:3550   */\n      tag_96\n      jump\t// in\n    tag_174:\n        /* \"#utility.yul\":3446:3550   */\n      swap1\n      pop\n        /* \"#utility.yul\":3208:3557   */\n      swap3\n      swap2\n      pop\n      pop\n      jump\t// out\n        /* \"#utility.yul\":3563:3681   */\n    tag_97:\n        /* \"#utility.yul\":3650:3674   */\n      tag_176\n        /* \"#utility.yul\":3668:3673   */\n      dup2\n        /* \"#utility.yul\":3650:3674   */\n      tag_84\n      jump\t// in\n    tag_176:\n        /* \"#utility.yul\":3645:3648   */\n      dup3\n        /* \"#utility.yul\":3638:3675   */\n      mstore\n        /* \"#utility.yul\":3563:3681   */\n      pop\n      pop\n      jump\t// out\n        /* \"#utility.yul\":3687:3909   */\n    tag_18:\n        /* \"#utility.yul\":3780:3784   */\n      0x00\n        /* \"#utility.yul\":3818:3820   */\n      0x20\n        /* \"#utility.yul\":3807:3816   */\n      dup3\n        /* \"#utility.yul\":3803:3821   */\n      add\n        /* \"#utility.yul\":3795:3821   */\n      swap1\n      pop\n        /* \"#utility.yul\":3831:3902   */\n      tag_178\n        /* \"#utility.yul\":3899:3900   */\n      0x00\n        /* \"#utility.yul\":3888:3897   */\n      dup4\n        /* \"#utility.yul\":3884:3901   */\n      add\n        /* \"#utility.yul\":3875:3881   */\n      dup5\n        /* \"#utility.yul\":3831:3902   */\n      tag_97\n      jump\t// in\n    tag_178:\n        /* \"#utility.yul\":3687:3909   */\n      swap3\n      swap2\n      pop\n      pop\n      jump\t// out\n        /* \"#utility.yul\":3915:4032   */\n    tag_98:\n        /* \"#utility.yul\":4024:4025   */\n      0x00\n        /* \"#utility.yul\":4021:4022   */\n      dup1\n        /* \"#utility.yul\":4014:4026   */\n      revert\n        /* \"#utility.yul\":4038:4155   */\n    tag_99:\n        /* \"#utility.yul\":4147:4148   */\n      0x00\n        /* \"#utility.yul\":4144:4145   */\n      dup1\n        /* \"#utility.yul\":4137:4149   */\n      revert\n        /* \"#utility.yul\":4161:4341   */\n    tag_100:\n        /* \"#utility.yul\":4209:4286   */\n      0x4e487b7100000000000000000000000000000000000000000000000000000000\n        /* \"#utility.yul\":4206:4207   */\n      0x00\n        /* \"#utility.yul\":4199:4287   */\n      mstore\n        /* \"#utility.yul\":4306:4310   */\n      0x41\n        /* \"#utility.yul\":4303:4304   */\n      0x04\n        /* \"#utility.yul\":4296:4311   */\n      mstore\n        /* \"#utility.yul\":4330:4334   */\n      0x24\n        /* \"#utility.yul\":4327:4328   */\n      0x00\n        /* \"#utility.yul\":4320:4335   */\n      revert\n        /* \"#utility.yul\":4347:4628   */\n    tag_101:\n        /* \"#utility.yul\":4430:4457   */\n      tag_183\n        /* \"#utility.yul\":4452:4456   */\n      dup3\n        /* \"#utility.yul\":4430:4457   */\n      tag_90\n      jump\t// in\n    tag_183:\n        /* \"#utility.yul\":4422:4428   */\n      dup2\n        /* \"#utility.yul\":4418:4458   */\n      add\n        /* \"#utility.yul\":4560:4566   */\n      dup2\n        /* \"#utility.yul\":4548:4558   */\n      dup2\n        /* \"#utility.yul\":4545:4567   */\n      lt\n        /* \"#utility.yul\":4524:4542   */\n      0xffffffffffffffff\n        /* \"#utility.yul\":4512:4522   */\n      dup3\n        /* \"#utility.yul\":4509:4543   */\n      gt\n        /* \"#utility.yul\":4506:4568   */\n      or\n        /* \"#utility.yul\":4503:4591   */\n      iszero\n      tag_184\n      jumpi\n        /* \"#utility.yul\":4571:4589   */\n      tag_185\n      tag_100\n      jump\t// in\n    tag_185:\n        /* \"#utility.yul\":4503:4591   */\n    tag_184:\n        /* \"#utility.yul\":4611:4621   */\n      dup1\n        /* \"#utility.yul\":4607:4609   */\n      0x40\n        /* \"#utility.yul\":4600:4622   */\n      mstore\n        /* \"#utility.yul\":4390:4628   */\n      pop\n        /* \"#utility.yul\":4347:4628   */\n      pop\n      pop\n      jump\t// out\n        /* \"#utility.yul\":4634:4763   */\n    tag_102:\n        /* \"#utility.yul\":4668:4674   */\n      0x00\n        /* \"#utility.yul\":4695:4715   */\n      tag_187\n      tag_81\n      jump\t// in\n    tag_187:\n        /* \"#utility.yul\":4685:4715   */\n      swap1\n      pop\n        /* \"#utility.yul\":4724:4757   */\n      tag_188\n        /* \"#utility.yul\":4752:4756   */\n      dup3\n        /* \"#utility.yul\":4744:4750   */\n      dup3\n        /* \"#utility.yul\":4724:4757   */\n      tag_101\n      jump\t// in\n    tag_188:\n        /* \"#utility.yul\":4634:4763   */\n      swap2\n      swap1\n      pop\n      jump\t// out\n        /* \"#utility.yul\":4769:5077   */\n    tag_103:\n        /* \"#utility.yul\":4831:4835   */\n      0x00\n        /* \"#utility.yul\":4921:4939   */\n      0xffffffffffffffff\n        /* \"#utility.yul\":4913:4919   */\n      dup3\n        /* \"#utility.yul\":4910:4940   */\n      gt\n        /* \"#utility.yul\":4907:4963   */\n      iszero\n      tag_190\n      jumpi\n        /* \"#utility.yul\":4943:4961   */\n      tag_191\n      tag_100\n      jump\t// in\n    tag_191:\n        /* \"#utility.yul\":4907:4963   */\n    tag_190:\n        /* \"#utility.yul\":4981:5010   */\n      tag_192\n        /* \"#utility.yul\":5003:5009   */\n      dup3\n        /* \"#utility.yul\":4981:5010   */\n      tag_90\n      jump\t// in\n    tag_192:\n        /* \"#utility.yul\":4973:5010   */\n      swap1\n      pop\n        /* \"#utility.yul\":5065:5069   */\n      0x20\n        /* \"#utility.yul\":5059:5063   */\n      dup2\n        /* \"#utility.yul\":5055:5070   */\n      add\n        /* \"#utility.yul\":5047:5070   */\n      swap1\n      pop\n        /* \"#utility.yul\":4769:5077   */\n      swap2\n      swap1\n      pop\n      jump\t// out\n        /* \"#utility.yul\":5083:5231   */\n    tag_104:\n        /* \"#utility.yul\":5181:5187   */\n      dup3\n        /* \"#utility.yul\":5176:5179   */\n      dup2\n        /* \"#utility.yul\":5171:5174   */\n      dup4\n        /* \"#utility.yul\":5158:5188   */\n      calldatacopy\n        /* \"#utility.yul\":5222:5223   */\n      0x00\n        /* \"#utility.yul\":5213:5219   */\n      dup4\n        /* \"#utility.yul\":5208:5211   */\n      dup4\n        /* \"#utility.yul\":5204:5220   */\n      add\n        /* \"#utility.yul\":5197:5224   */\n      mstore\n        /* \"#utility.yul\":5083:5231   */\n      pop\n      pop\n      pop\n      jump\t// out\n        /* \"#utility.yul\":5237:5662   */\n    tag_105:\n        /* \"#utility.yul\":5315:5320   */\n      0x00\n        /* \"#utility.yul\":5340:5406   */\n      tag_195\n        /* \"#utility.yul\":5356:5405   */\n      tag_196\n        /* \"#utility.yul\":5398:5404   */\n      dup5\n        /* \"#utility.yul\":5356:5405   */\n      tag_103\n      jump\t// in\n    tag_196:\n        /* \"#utility.yul\":5340:5406   */\n      tag_102\n      jump\t// in\n    tag_195:\n        /* \"#utility.yul\":5331:5406   */\n      swap1\n      pop\n        /* \"#utility.yul\":5429:5435   */\n      dup3\n        /* \"#utility.yul\":5422:5427   */\n      dup2\n        /* \"#utility.yul\":5415:5436   */\n      mstore\n        /* \"#utility.yul\":5467:5471   */\n      0x20\n        /* \"#utility.yul\":5460:5465   */\n      dup2\n        /* \"#utility.yul\":5456:5472   */\n      add\n        /* \"#utility.yul\":5505:5508   */\n      dup5\n        /* \"#utility.yul\":5496:5502   */\n      dup5\n        /* \"#utility.yul\":5491:5494   */\n      dup5\n        /* \"#utility.yul\":5487:5503   */\n      add\n        /* \"#utility.yul\":5484:5509   */\n      gt\n        /* \"#utility.yul\":5481:5593   */\n      iszero\n      tag_197\n      jumpi\n        /* \"#utility.yul\":5512:5591   */\n      tag_198\n      tag_99\n      jump\t// in\n    tag_198:\n        /* \"#utility.yul\":5481:5593   */\n    tag_197:\n        /* \"#utility.yul\":5602:5656   */\n      tag_199\n        /* \"#utility.yul\":5649:5655   */\n      dup5\n        /* \"#utility.yul\":5644:5647   */\n      dup3\n        /* \"#utility.yul\":5639:5642   */\n      dup6\n        /* \"#utility.yul\":5602:5656   */\n      tag_104\n      jump\t// in\n    tag_199:\n        /* \"#utility.yul\":5321:5662   */\n      pop\n        /* \"#utility.yul\":5237:5662   */\n      swap4\n      swap3\n      pop\n      pop\n      pop\n      jump\t// out\n        /* \"#utility.yul\":5682:6022   */\n    tag_106:\n        /* \"#utility.yul\":5738:5743   */\n      0x00\n        /* \"#utility.yul\":5787:5790   */\n      dup3\n        /* \"#utility.yul\":5780:5784   */\n      0x1f\n        /* \"#utility.yul\":5772:5778   */\n      dup4\n        /* \"#utility.yul\":5768:5785   */\n      add\n        /* \"#utility.yul\":5764:5791   */\n      slt\n        /* \"#utility.yul\":5754:5876   */\n      tag_201\n      jumpi\n        /* \"#utility.yul\":5795:5874   */\n      tag_202\n      tag_98\n      jump\t// in\n    tag_202:\n        /* \"#utility.yul\":5754:5876   */\n    tag_201:\n        /* \"#utility.yul\":5912:5918   */\n      dup2\n        /* \"#utility.yul\":5899:5919   */\n      calldataload\n        /* \"#utility.yul\":5937:6016   */\n      tag_203\n        /* \"#utility.yul\":6012:6015   */\n      dup5\n        /* \"#utility.yul\":6004:6010   */\n      dup3\n        /* \"#utility.yul\":5997:6001   */\n      0x20\n        /* \"#utility.yul\":5989:5995   */\n      dup7\n        /* \"#utility.yul\":5985:6002   */\n      add\n        /* \"#utility.yul\":5937:6016   */\n      tag_105\n      jump\t// in\n    tag_203:\n        /* \"#utility.yul\":5928:6016   */\n      swap2\n      pop\n        /* \"#utility.yul\":5744:6022   */\n      pop\n        /* \"#utility.yul\":5682:6022   */\n      swap3\n      swap2\n      pop\n      pop\n      jump\t// out\n        /* \"#utility.yul\":6028:6537   */\n    tag_21:\n        /* \"#utility.yul\":6097:6103   */\n      0x00\n        /* \"#utility.yul\":6146:6148   */\n      0x20\n        /* \"#utility.yul\":6134:6143   */\n      dup3\n        /* \"#utility.yul\":6125:6132   */\n      dup5\n        /* \"#utility.yul\":6121:6144   */\n      sub\n        /* \"#utility.yul\":6117:6149   */\n      slt\n        /* \"#utility.yul\":6114:6233   */\n      iszero\n      tag_205\n      jumpi\n        /* \"#utility.yul\":6152:6231   */\n      tag_206\n      tag_82\n      jump\t// in\n    tag_206:\n        /* \"#utility.yul\":6114:6233   */\n    tag_205:\n        /* \"#utility.yul\":6300:6301   */\n      0x00\n        /* \"#utility.yul\":6289:6298   */\n      dup3\n        /* \"#utility.yul\":6285:6302   */\n      add\n        /* \"#utility.yul\":6272:6303   */\n      calldataload\n        /* \"#utility.yul\":6330:6348   */\n      0xffffffffffffffff\n        /* \"#utility.yul\":6322:6328   */\n      dup2\n        /* \"#utility.yul\":6319:6349   */\n      gt\n        /* \"#utility.yul\":6316:6433   */\n      iszero\n      tag_207\n      jumpi\n        /* \"#utility.yul\":6352:6431   */\n      tag_208\n      tag_83\n      jump\t// in\n    tag_208:\n        /* \"#utility.yul\":6316:6433   */\n    tag_207:\n        /* \"#utility.yul\":6457:6520   */\n      tag_209\n        /* \"#utility.yul\":6512:6519   */\n      dup5\n        /* \"#utility.yul\":6503:6509   */\n      dup3\n        /* \"#utility.yul\":6492:6501   */\n      dup6\n        /* \"#utility.yul\":6488:6510   */\n      add\n        /* \"#utility.yul\":6457:6520   */\n      tag_106\n      jump\t// in\n    tag_209:\n        /* \"#utility.yul\":6447:6520   */\n      swap2\n      pop\n        /* \"#utility.yul\":6243:6530   */\n      pop\n        /* \"#utility.yul\":6028:6537   */\n      swap3\n      swap2\n      pop\n      pop\n      jump\t// out\n        /* \"#utility.yul\":6543:7197   */\n    tag_25:\n        /* \"#utility.yul\":6621:6627   */\n      0x00\n        /* \"#utility.yul\":6629:6635   */\n      dup1\n        /* \"#utility.yul\":6678:6680   */\n      0x40\n        /* \"#utility.yul\":6666:6675   */\n      dup4\n        /* \"#utility.yul\":6657:6664   */\n      dup6\n        /* \"#utility.yul\":6653:6676   */\n      sub\n        /* \"#utility.yul\":6649:6681   */\n      slt\n        /* \"#utility.yul\":6646:6765   */\n      iszero\n      tag_211\n      jumpi\n        /* \"#utility.yul\":6684:6763   */\n      tag_212\n      tag_82\n      jump\t// in\n    tag_212:\n        /* \"#utility.yul\":6646:6765   */\n    tag_211:\n        /* \"#utility.yul\":6832:6833   */\n      0x00\n        /* \"#utility.yul\":6821:6830   */\n      dup4\n        /* \"#utility.yul\":6817:6834   */\n      add\n        /* \"#utility.yul\":6804:6835   */\n      calldataload\n        /* \"#utility.yul\":6862:6880   */\n      0xffffffffffffffff\n        /* \"#utility.yul\":6854:6860   */\n      dup2\n        /* \"#utility.yul\":6851:6881   */\n      gt\n        /* \"#utility.yul\":6848:6965   */\n      iszero\n      tag_213\n      jumpi\n        /* \"#utility.yul\":6884:6963   */\n      tag_214\n      tag_83\n      jump\t// in\n    tag_214:\n        /* \"#utility.yul\":6848:6965   */\n    tag_213:\n        /* \"#utility.yul\":6989:7052   */\n      tag_215\n        /* \"#utility.yul\":7044:7051   */\n      dup6\n        /* \"#utility.yul\":7035:7041   */\n      dup3\n        /* \"#utility.yul\":7024:7033   */\n      dup7\n        /* \"#utility.yul\":7020:7042   */\n      add\n        /* \"#utility.yul\":6989:7052   */\n      tag_106\n      jump\t// in\n    tag_215:\n        /* \"#utility.yul\":6979:7052   */\n      swap3\n      pop\n        /* \"#utility.yul\":6775:7062   */\n      pop\n        /* \"#utility.yul\":7101:7103   */\n      0x20\n        /* \"#utility.yul\":7127:7180   */\n      tag_216\n        /* \"#utility.yul\":7172:7179   */\n      dup6\n        /* \"#utility.yul\":7163:7169   */\n      dup3\n        /* \"#utility.yul\":7152:7161   */\n      dup7\n        /* \"#utility.yul\":7148:7170   */\n      add\n        /* \"#utility.yul\":7127:7180   */\n      tag_86\n      jump\t// in\n    tag_216:\n        /* \"#utility.yul\":7117:7180   */\n      swap2\n      pop\n        /* \"#utility.yul\":7072:7190   */\n      pop\n        /* \"#utility.yul\":6543:7197   */\n      swap3\n      pop\n      swap3\n      swap1\n      pop\n      jump\t// out\n        /* \"#utility.yul\":7203:7325   */\n    tag_107:\n        /* \"#utility.yul\":7276:7300   */\n      tag_218\n        /* \"#utility.yul\":7294:7299   */\n      dup2\n        /* \"#utility.yul\":7276:7300   */\n      tag_94\n      jump\t// in\n    tag_218:\n        /* \"#utility.yul\":7269:7274   */\n      dup2\n        /* \"#utility.yul\":7266:7301   */\n      eq\n        /* \"#utility.yul\":7256:7319   */\n      tag_219\n      jumpi\n        /* \"#utility.yul\":7315:7316   */\n      0x00\n        /* \"#utility.yul\":7312:7313   */\n      dup1\n        /* \"#utility.yul\":7305:7317   */\n      revert\n        /* \"#utility.yul\":7256:7319   */\n    tag_219:\n        /* \"#utility.yul\":7203:7325   */\n      pop\n      jump\t// out\n        /* \"#utility.yul\":7331:7470   */\n    tag_108:\n        /* \"#utility.yul\":7377:7382   */\n      0x00\n        /* \"#utility.yul\":7415:7421   */\n      dup2\n        /* \"#utility.yul\":7402:7422   */\n      calldataload\n        /* \"#utility.yul\":7393:7422   */\n      swap1\n      pop\n        /* \"#utility.yul\":7431:7464   */\n      tag_221\n        /* \"#utility.yul\":7458:7463   */\n      dup2\n        /* \"#utility.yul\":7431:7464   */\n      tag_107\n      jump\t// in\n    tag_221:\n        /* \"#utility.yul\":7331:7470   */\n      swap3\n      swap2\n      pop\n      pop\n      jump\t// out\n        /* \"#utility.yul\":7476:7805   */\n    tag_29:\n        /* \"#utility.yul\":7535:7541   */\n      0x00\n        /* \"#utility.yul\":7584:7586   */\n      0x20\n        /* \"#utility.yul\":7572:7581   */\n      dup3\n        /* \"#utility.yul\":7563:7570   */\n      dup5\n        /* \"#utility.yul\":7559:7582   */\n      sub\n        /* \"#utility.yul\":7555:7587   */\n      slt\n        /* \"#utility.yul\":7552:7671   */\n      iszero\n      tag_223\n      jumpi\n        /* \"#utility.yul\":7590:7669   */\n      tag_224\n      tag_82\n      jump\t// in\n    tag_224:\n        /* \"#utility.yul\":7552:7671   */\n    tag_223:\n        /* \"#utility.yul\":7710:7711   */\n      0x00\n        /* \"#utility.yul\":7735:7788   */\n      tag_225\n        /* \"#utility.yul\":7780:7787   */\n      dup5\n        /* \"#utility.yul\":7771:7777   */\n      dup3\n        /* \"#utility.yul\":7760:7769   */\n      dup6\n        /* \"#utility.yul\":7756:7778   */\n      add\n        /* \"#utility.yul\":7735:7788   */\n      tag_108\n      jump\t// in\n    tag_225:\n        /* \"#utility.yul\":7725:7788   */\n      swap2\n      pop\n        /* \"#utility.yul\":7681:7798   */\n      pop\n        /* \"#utility.yul\":7476:7805   */\n      swap3\n      swap2\n      pop\n      pop\n      jump\t// out\n        /* \"#utility.yul\":7811:7980   */\n    tag_109:\n        /* \"#utility.yul\":7895:7906   */\n      0x00\n        /* \"#utility.yul\":7929:7935   */\n      dup3\n        /* \"#utility.yul\":7924:7927   */\n      dup3\n        /* \"#utility.yul\":7917:7936   */\n      mstore\n        /* \"#utility.yul\":7969:7973   */\n      0x20\n        /* \"#utility.yul\":7964:7967   */\n      dup3\n        /* \"#utility.yul\":7960:7974   */\n      add\n        /* \"#utility.yul\":7945:7974   */\n      swap1\n      pop\n        /* \"#utility.yul\":7811:7980   */\n      swap3\n      swap2\n      pop\n      pop\n      jump\t// out\n        /* \"#utility.yul\":7986:8363   */\n    tag_110:\n        /* \"#utility.yul\":8074:8077   */\n      0x00\n        /* \"#utility.yul\":8102:8141   */\n      tag_228\n        /* \"#utility.yul\":8135:8140   */\n      dup3\n        /* \"#utility.yul\":8102:8141   */\n      tag_87\n      jump\t// in\n    tag_228:\n        /* \"#utility.yul\":8157:8228   */\n      tag_229\n        /* \"#utility.yul\":8221:8227   */\n      dup2\n        /* \"#utility.yul\":8216:8219   */\n      dup6\n        /* \"#utility.yul\":8157:8228   */\n      tag_109\n      jump\t// in\n    tag_229:\n        /* \"#utility.yul\":8150:8228   */\n      swap4\n      pop\n        /* \"#utility.yul\":8237:8302   */\n      tag_230\n        /* \"#utility.yul\":8295:8301   */\n      dup2\n        /* \"#utility.yul\":8290:8293   */\n      dup6\n        /* \"#utility.yul\":8283:8287   */\n      0x20\n        /* \"#utility.yul\":8276:8281   */\n      dup7\n        /* \"#utility.yul\":8272:8288   */\n      add\n        /* \"#utility.yul\":8237:8302   */\n      tag_89\n      jump\t// in\n    tag_230:\n        /* \"#utility.yul\":8327:8356   */\n      tag_231\n        /* \"#utility.yul\":8349:8355   */\n      dup2\n        /* \"#utility.yul\":8327:8356   */\n      tag_90\n      jump\t// in\n    tag_231:\n        /* \"#utility.yul\":8322:8325   */\n      dup5\n        /* \"#utility.yul\":8318:8357   */\n      add\n        /* \"#utility.yul\":8311:8357   */\n      swap2\n      pop\n        /* \"#utility.yul\":8078:8363   */\n      pop\n        /* \"#utility.yul\":7986:8363   */\n      swap3\n      swap2\n      pop\n      pop\n      jump\t// out\n        /* \"#utility.yul\":8369:8459   */\n    tag_111:\n        /* \"#utility.yul\":8403:8410   */\n      0x00\n        /* \"#utility.yul\":8446:8451   */\n      dup2\n        /* \"#utility.yul\":8439:8452   */\n      iszero\n        /* \"#utility.yul\":8432:8453   */\n      iszero\n        /* \"#utility.yul\":8421:8453   */\n      swap1\n      pop\n        /* \"#utility.yul\":8369:8459   */\n      swap2\n      swap1\n      pop\n      jump\t// out\n        /* \"#utility.yul\":8465:8574   */\n    tag_112:\n        /* \"#utility.yul\":8546:8567   */\n      tag_234\n        /* \"#utility.yul\":8561:8566   */\n      dup2\n        /* \"#utility.yul\":8546:8567   */\n      tag_111\n      jump\t// in\n    tag_234:\n        /* \"#utility.yul\":8541:8544   */\n      dup3\n        /* \"#utility.yul\":8534:8568   */\n      mstore\n        /* \"#utility.yul\":8465:8574   */\n      pop\n      pop\n      jump\t// out\n        /* \"#utility.yul\":8580:8991   */\n    tag_32:\n        /* \"#utility.yul\":8715:8719   */\n      0x00\n        /* \"#utility.yul\":8753:8755   */\n      0x40\n        /* \"#utility.yul\":8742:8751   */\n      dup3\n        /* \"#utility.yul\":8738:8756   */\n      add\n        /* \"#utility.yul\":8730:8756   */\n      swap1\n      pop\n        /* \"#utility.yul\":8802:8811   */\n      dup2\n        /* \"#utility.yul\":8796:8800   */\n      dup2\n        /* \"#utility.yul\":8792:8812   */\n      sub\n        /* \"#utility.yul\":8788:8789   */\n      0x00\n        /* \"#utility.yul\":8777:8786   */\n      dup4\n        /* \"#utility.yul\":8773:8790   */\n      add\n        /* \"#utility.yul\":8766:8813   */\n      mstore\n        /* \"#utility.yul\":8830:8908   */\n      tag_236\n        /* \"#utility.yul\":8903:8907   */\n      dup2\n        /* \"#utility.yul\":8894:8900   */\n      dup6\n        /* \"#utility.yul\":8830:8908   */\n      tag_110\n      jump\t// in\n    tag_236:\n        /* \"#utility.yul\":8822:8908   */\n      swap1\n      pop\n        /* \"#utility.yul\":8918:8984   */\n      tag_237\n        /* \"#utility.yul\":8980:8982   */\n      0x20\n        /* \"#utility.yul\":8969:8978   */\n      dup4\n        /* \"#utility.yul\":8965:8983   */\n      add\n        /* \"#utility.yul\":8956:8962   */\n      dup5\n        /* \"#utility.yul\":8918:8984   */\n      tag_112\n      jump\t// in\n    tag_237:\n        /* \"#utility.yul\":8580:8991   */\n      swap4\n      swap3\n      pop\n      pop\n      pop\n      jump\t// out\n        /* \"#utility.yul\":8997:9115   */\n    tag_113:\n        /* \"#utility.yul\":9084:9108   */\n      tag_239\n        /* \"#utility.yul\":9102:9107   */\n      dup2\n        /* \"#utility.yul\":9084:9108   */\n      tag_94\n      jump\t// in\n    tag_239:\n        /* \"#utility.yul\":9079:9082   */\n      dup3\n        /* \"#utility.yul\":9072:9109   */\n      mstore\n        /* \"#utility.yul\":8997:9115   */\n      pop\n      pop\n      jump\t// out\n        /* \"#utility.yul\":9121:9654   */\n    tag_37:\n        /* \"#utility.yul\":9290:9294   */\n      0x00\n        /* \"#utility.yul\":9328:9330   */\n      0x60\n        /* \"#utility.yul\":9317:9326   */\n      dup3\n        /* \"#utility.yul\":9313:9331   */\n      add\n        /* \"#utility.yul\":9305:9331   */\n      swap1\n      pop\n        /* \"#utility.yul\":9377:9386   */\n      dup2\n        /* \"#utility.yul\":9371:9375   */\n      dup2\n        /* \"#utility.yul\":9367:9387   */\n      sub\n        /* \"#utility.yul\":9363:9364   */\n      0x00\n        /* \"#utility.yul\":9352:9361   */\n      dup4\n        /* \"#utility.yul\":9348:9365   */\n      add\n        /* \"#utility.yul\":9341:9388   */\n      mstore\n        /* \"#utility.yul\":9405:9483   */\n      tag_241\n        /* \"#utility.yul\":9478:9482   */\n      dup2\n        /* \"#utility.yul\":9469:9475   */\n      dup7\n        /* \"#utility.yul\":9405:9483   */\n      tag_110\n      jump\t// in\n    tag_241:\n        /* \"#utility.yul\":9397:9483   */\n      swap1\n      pop\n        /* \"#utility.yul\":9493:9565   */\n      tag_242\n        /* \"#utility.yul\":9561:9563   */\n      0x20\n        /* \"#utility.yul\":9550:9559   */\n      dup4\n        /* \"#utility.yul\":9546:9564   */\n      add\n        /* \"#utility.yul\":9537:9543   */\n      dup6\n        /* \"#utility.yul\":9493:9565   */\n      tag_97\n      jump\t// in\n    tag_242:\n        /* \"#utility.yul\":9575:9647   */\n      tag_243\n        /* \"#utility.yul\":9643:9645   */\n      0x40\n        /* \"#utility.yul\":9632:9641   */\n      dup4\n        /* \"#utility.yul\":9628:9646   */\n      add\n        /* \"#utility.yul\":9619:9625   */\n      dup5\n        /* \"#utility.yul\":9575:9647   */\n      tag_113\n      jump\t// in\n    tag_243:\n        /* \"#utility.yul\":9121:9654   */\n      swap5\n      swap4\n      pop\n      pop\n      pop\n      pop\n      jump\t// out\n        /* \"#utility.yul\":9660:9829   */\n    tag_114:\n        /* \"#utility.yul\":9800:9821   */\n      0x4974656d20646f6573206e6f7420657869737400000000000000000000000000\n        /* \"#utility.yul\":9796:9797   */\n      0x00\n        /* \"#utility.yul\":9788:9794   */\n      dup3\n        /* \"#utility.yul\":9784:9798   */\n      add\n        /* \"#utility.yul\":9777:9822   */\n      mstore\n        /* \"#utility.yul\":9660:9829   */\n      pop\n      jump\t// out\n        /* \"#utility.yul\":9835:10201   */\n    tag_115:\n        /* \"#utility.yul\":9977:9980   */\n      0x00\n        /* \"#utility.yul\":9998:10065   */\n      tag_246\n        /* \"#utility.yul\":10062:10064   */\n      0x13\n        /* \"#utility.yul\":10057:10060   */\n      dup4\n        /* \"#utility.yul\":9998:10065   */\n      tag_109\n      jump\t// in\n    tag_246:\n        /* \"#utility.yul\":9991:10065   */\n      swap2\n      pop\n        /* \"#utility.yul\":10074:10167   */\n      tag_247\n        /* \"#utility.yul\":10163:10166   */\n      dup3\n        /* \"#utility.yul\":10074:10167   */\n      tag_114\n      jump\t// in\n    tag_247:\n        /* \"#utility.yul\":10192:10194   */\n      0x20\n        /* \"#utility.yul\":10187:10190   */\n      dup3\n        /* \"#utility.yul\":10183:10195   */\n      add\n        /* \"#utility.yul\":10176:10195   */\n      swap1\n      pop\n        /* \"#utility.yul\":9835:10201   */\n      swap2\n      swap1\n      pop\n      jump\t// out\n        /* \"#utility.yul\":10207:10626   */\n    tag_44:\n        /* \"#utility.yul\":10373:10377   */\n      0x00\n        /* \"#utility.yul\":10411:10413   */\n      0x20\n        /* \"#utility.yul\":10400:10409   */\n      dup3\n        /* \"#utility.yul\":10396:10414   */\n      add\n        /* \"#utility.yul\":10388:10414   */\n      swap1\n      pop\n        /* \"#utility.yul\":10460:10469   */\n      dup2\n        /* \"#utility.yul\":10454:10458   */\n      dup2\n        /* \"#utility.yul\":10450:10470   */\n      sub\n        /* \"#utility.yul\":10446:10447   */\n      0x00\n        /* \"#utility.yul\":10435:10444   */\n      dup4\n        /* \"#utility.yul\":10431:10448   */\n      add\n        /* \"#utility.yul\":10424:10471   */\n      mstore\n        /* \"#utility.yul\":10488:10619   */\n      tag_249\n        /* \"#utility.yul\":10614:10618   */\n      dup2\n        /* \"#utility.yul\":10488:10619   */\n      tag_115\n      jump\t// in\n    tag_249:\n        /* \"#utility.yul\":10480:10619   */\n      swap1\n      pop\n        /* \"#utility.yul\":10207:10626   */\n      swap2\n      swap1\n      pop\n      jump\t// out\n        /* \"#utility.yul\":10632:10812   */\n    tag_116:\n        /* \"#utility.yul\":10680:10757   */\n      0x4e487b7100000000000000000000000000000000000000000000000000000000\n        /* \"#utility.yul\":10677:10678   */\n      0x00\n        /* \"#utility.yul\":10670:10758   */\n      mstore\n        /* \"#utility.yul\":10777:10781   */\n      0x22\n        /* \"#utility.yul\":10774:10775   */\n      0x04\n        /* \"#utility.yul\":10767:10782   */\n      mstore\n        /* \"#utility.yul\":10801:10805   */\n      0x24\n        /* \"#utility.yul\":10798:10799   */\n      0x00\n        /* \"#utility.yul\":10791:10806   */\n      revert\n        /* \"#utility.yul\":10818:11138   */\n    tag_46:\n        /* \"#utility.yul\":10862:10868   */\n      0x00\n        /* \"#utility.yul\":10899:10900   */\n      0x02\n        /* \"#utility.yul\":10893:10897   */\n      dup3\n        /* \"#utility.yul\":10889:10901   */\n      div\n        /* \"#utility.yul\":10879:10901   */\n      swap1\n      pop\n        /* \"#utility.yul\":10946:10947   */\n      0x01\n        /* \"#utility.yul\":10940:10944   */\n      dup3\n        /* \"#utility.yul\":10936:10948   */\n      and\n        /* \"#utility.yul\":10967:10985   */\n      dup1\n        /* \"#utility.yul\":10957:11038   */\n      tag_252\n      jumpi\n        /* \"#utility.yul\":11023:11027   */\n      0x7f\n        /* \"#utility.yul\":11015:11021   */\n      dup3\n        /* \"#utility.yul\":11011:11028   */\n      and\n        /* \"#utility.yul\":11001:11028   */\n      swap2\n      pop\n        /* \"#utility.yul\":10957:11038   */\n    tag_252:\n        /* \"#utility.yul\":11085:11087   */\n      0x20\n        /* \"#utility.yul\":11077:11083   */\n      dup3\n        /* \"#utility.yul\":11074:11088   */\n      lt\n        /* \"#utility.yul\":11054:11072   */\n      dup2\n        /* \"#utility.yul\":11051:11089   */\n      sub\n        /* \"#utility.yul\":11048:11132   */\n      tag_253\n      jumpi\n        /* \"#utility.yul\":11104:11122   */\n      tag_254\n      tag_116\n      jump\t// in\n    tag_254:\n        /* \"#utility.yul\":11048:11132   */\n    tag_253:\n        /* \"#utility.yul\":10869:11138   */\n      pop\n        /* \"#utility.yul\":10818:11138   */\n      swap2\n      swap1\n      pop\n      jump\t// out\n        /* \"#utility.yul\":11144:11317   */\n    tag_117:\n        /* \"#utility.yul\":11284:11309   */\n      0x5573657220616c72656164792072656769737465726564000000000000000000\n        /* \"#utility.yul\":11280:11281   */\n      0x00\n        /* \"#utility.yul\":11272:11278   */\n      dup3\n        /* \"#utility.yul\":11268:11282   */\n      add\n        /* \"#utility.yul\":11261:11310   */\n      mstore\n        /* \"#utility.yul\":11144:11317   */\n      pop\n      jump\t// out\n        /* \"#utility.yul\":11323:11689   */\n    tag_118:\n        /* \"#utility.yul\":11465:11468   */\n      0x00\n        /* \"#utility.yul\":11486:11553   */\n      tag_257\n        /* \"#utility.yul\":11550:11552   */\n      0x17\n        /* \"#utility.yul\":11545:11548   */\n      dup4\n        /* \"#utility.yul\":11486:11553   */\n      tag_109\n      jump\t// in\n    tag_257:\n        /* \"#utility.yul\":11479:11553   */\n      swap2\n      pop\n        /* \"#utility.yul\":11562:11655   */\n      tag_258\n        /* \"#utility.yul\":11651:11654   */\n      dup3\n        /* \"#utility.yul\":11562:11655   */\n      tag_117\n      jump\t// in\n    tag_258:\n        /* \"#utility.yul\":11680:11682   */\n      0x20\n        /* \"#utility.yul\":11675:11678   */\n      dup3\n        /* \"#utility.yul\":11671:11683   */\n      add\n        /* \"#utility.yul\":11664:11683   */\n      swap1\n      pop\n        /* \"#utility.yul\":11323:11689   */\n      swap2\n      swap1\n      pop\n      jump\t// out\n        /* \"#utility.yul\":11695:12114   */\n    tag_54:\n        /* \"#utility.yul\":11861:11865   */\n      0x00\n        /* \"#utility.yul\":11899:11901   */\n      0x20\n        /* \"#utility.yul\":11888:11897   */\n      dup3\n        /* \"#utility.yul\":11884:11902   */\n      add\n        /* \"#utility.yul\":11876:11902   */\n      swap1\n      pop\n        /* \"#utility.yul\":11948:11957   */\n      dup2\n        /* \"#utility.yul\":11942:11946   */\n      dup2\n        /* \"#utility.yul\":11938:11958   */\n      sub\n        /* \"#utility.yul\":11934:11935   */\n      0x00\n        /* \"#utility.yul\":11923:11932   */\n      dup4\n        /* \"#utility.yul\":11919:11936   */\n      add\n        /* \"#utility.yul\":11912:11959   */\n      mstore\n        /* \"#utility.yul\":11976:12107   */\n      tag_260\n        /* \"#utility.yul\":12102:12106   */\n      dup2\n        /* \"#utility.yul\":11976:12107   */\n      tag_118\n      jump\t// in\n    tag_260:\n        /* \"#utility.yul\":11968:12107   */\n      swap1\n      pop\n        /* \"#utility.yul\":11695:12114   */\n      swap2\n      swap1\n      pop\n      jump\t// out\n        /* \"#utility.yul\":12120:12261   */\n    tag_119:\n        /* \"#utility.yul\":12169:12173   */\n      0x00\n        /* \"#utility.yul\":12192:12195   */\n      dup2\n        /* \"#utility.yul\":12184:12195   */\n      swap1\n      pop\n        /* \"#utility.yul\":12215:12218   */\n      dup2\n        /* \"#utility.yul\":12212:12213   */\n      0x00\n        /* \"#utility.yul\":12205:12219   */\n      mstore\n        /* \"#utility.yul\":12249:12253   */\n      0x20\n        /* \"#utility.yul\":12246:12247   */\n      0x00\n        /* \"#utility.yul\":12236:12254   */\n      keccak256\n        /* \"#utility.yul\":12228:12254   */\n      swap1\n      pop\n        /* \"#utility.yul\":12120:12261   */\n      swap2\n      swap1\n      pop\n      jump\t// out\n        /* \"#utility.yul\":12267:12360   */\n    tag_120:\n        /* \"#utility.yul\":12304:12310   */\n      0x00\n        /* \"#utility.yul\":12351:12353   */\n      0x20\n        /* \"#utility.yul\":12346:12348   */\n      0x1f\n        /* \"#utility.yul\":12339:12344   */\n      dup4\n        /* \"#utility.yul\":12335:12349   */\n      add\n        /* \"#utility.yul\":12331:12354   */\n      div\n        /* \"#utility.yul\":12321:12354   */\n      swap1\n      pop\n        /* \"#utility.yul\":12267:12360   */\n      swap2\n      swap1\n      pop\n      jump\t// out\n        /* \"#utility.yul\":12366:12473   */\n    tag_121:\n        /* \"#utility.yul\":12410:12418   */\n      0x00\n        /* \"#utility.yul\":12460:12465   */\n      dup3\n        /* \"#utility.yul\":12454:12458   */\n      dup3\n        /* \"#utility.yul\":12450:12466   */\n      shl\n        /* \"#utility.yul\":12429:12466   */\n      swap1\n      pop\n        /* \"#utility.yul\":12366:12473   */\n      swap3\n      swap2\n      pop\n      pop\n      jump\t// out\n        /* \"#utility.yul\":12479:12872   */\n    tag_122:\n        /* \"#utility.yul\":12548:12554   */\n      0x00\n        /* \"#utility.yul\":12598:12599   */\n      0x08\n        /* \"#utility.yul\":12586:12596   */\n      dup4\n        /* \"#utility.yul\":12582:12600   */\n      mul\n        /* \"#utility.yul\":12621:12718   */\n      tag_265\n        /* \"#utility.yul\":12651:12717   */\n      0xffffffffffffffffffffffffffffffffffffffffffffffffffffffffffffffff\n        /* \"#utility.yul\":12640:12649   */\n      dup3\n        /* \"#utility.yul\":12621:12718   */\n      tag_121\n      jump\t// in\n    tag_265:\n        /* \"#utility.yul\":12739:12778   */\n      tag_266\n        /* \"#utility.yul\":12769:12777   */\n      dup7\n        /* \"#utility.yul\":12758:12767   */\n      dup4\n        /* \"#utility.yul\":12739:12778   */\n      tag_121\n      jump\t// in\n    tag_266:\n        /* \"#utility.yul\":12727:12778   */\n      swap6\n      pop\n        /* \"#utility.yul\":12811:12815   */\n      dup1\n        /* \"#utility.yul\":12807:12816   */\n      not\n        /* \"#utility.yul\":12800:12805   */\n      dup5\n        /* \"#utility.yul\":12796:12817   */\n      and\n        /* \"#utility.yul\":12787:12817   */\n      swap4\n      pop\n        /* \"#utility.yul\":12860:12864   */\n      dup1\n        /* \"#utility.yul\":12850:12858   */\n      dup7\n        /* \"#utility.yul\":12846:12865   */\n      and\n        /* \"#utility.yul\":12839:12844   */\n      dup5\n        /* \"#utility.yul\":12836:12866   */\n      or\n        /* \"#utility.yul\":12826:12866   */\n      swap3\n      pop\n        /* \"#utility.yul\":12555:12872   */\n      pop\n      pop\n        /* \"#utility.yul\":12479:12872   */\n      swap4\n      swap3\n      pop\n      pop\n      pop\n      jump\t// out\n        /* \"#utility.yul\":12878:12938   */\n    tag_123:\n        /* \"#utility.yul\":12906:12909   */\n      0x00\n        /* \"#utility.yul\":12927:12932   */\n      dup2\n        /* \"#utility.yul\":12920:12932   */\n      swap1\n      pop\n        /* \"#utility.yul\":12878:12938   */\n      swap2\n      swap1\n      pop\n      jump\t// out\n        /* \"#utility.yul\":12944:13086   */\n    tag_124:\n        /* \"#utility.yul\":12994:13003   */\n      0x00\n        /* \"#utility.yul\":13027:13080   */\n      tag_269\n        /* \"#utility.yul\":13045:13079   */\n      tag_270\n        /* \"#utility.yul\":13054:13078   */\n      tag_271\n        /* \"#utility.yul\":13072:13077   */\n      dup5\n        /* \"#utility.yul\":13054:13078   */\n      tag_84\n      jump\t// in\n    tag_271:\n        /* \"#utility.yul\":13045:13079   */\n      tag_123\n      jump\t// in\n    tag_270:\n        /* \"#utility.yul\":13027:13080   */\n      tag_84\n      jump\t// in\n    tag_269:\n        /* \"#utility.yul\":13014:13080   */\n      swap1\n      pop\n        /* \"#utility.yul\":12944:13086   */\n      swap2\n      swap1\n      pop\n      jump\t// out\n        /* \"#utility.yul\":13092:13167   */\n    tag_125:\n        /* \"#utility.yul\":13135:13138   */\n      0x00\n        /* \"#utility.yul\":13156:13161   */\n      dup2\n        /* \"#utility.yul\":13149:13161   */\n      swap1\n      pop\n        /* \"#utility.yul\":13092:13167   */\n      swap2\n      swap1\n      pop\n      jump\t// out\n        /* \"#utility.yul\":13173:13442   */\n    tag_126:\n        /* \"#utility.yul\":13283:13322   */\n      tag_274\n        /* \"#utility.yul\":13314:13321   */\n      dup4\n        /* \"#utility.yul\":13283:13322   */\n      tag_124\n      jump\t// in\n    tag_274:\n        /* \"#utility.yul\":13344:13435   */\n      tag_275\n        /* \"#utility.yul\":13393:13434   */\n      tag_276\n        /* \"#utility.yul\":13417:13433   */\n      dup3\n        /* \"#utility.yul\":13393:13434   */\n      tag_125\n      jump\t// in\n    tag_276:\n        /* \"#utility.yul\":13385:13391   */\n      dup5\n        /* \"#utility.yul\":13378:13382   */\n      dup5\n        /* \"#utility.yul\":13372:13383   */\n      sload\n        /* \"#utility.yul\":13344:13435   */\n      tag_122\n      jump\t// in\n    tag_275:\n        /* \"#utility.yul\":13338:13342   */\n      dup3\n        /* \"#utility.yul\":13331:13436   */\n      sstore\n        /* \"#utility.yul\":13249:13442   */\n      pop\n        /* \"#utility.yul\":13173:13442   */\n      pop\n      pop\n      pop\n      jump\t// out\n        /* \"#utility.yul\":13448:13521   */\n    tag_127:\n        /* \"#utility.yul\":13493:13496   */\n      0x00\n        /* \"#utility.yul\":13448:13521   */\n      swap1\n      jump\t// out\n        /* \"#utility.yul\":13527:13716   */\n    tag_128:\n        /* \"#utility.yul\":13604:13636   */\n      tag_279\n      tag_127\n      jump\t// in\n    tag_279:\n        /* \"#utility.yul\":13645:13710   */\n      tag_280\n        /* \"#utility.yul\":13703:13709   */\n      dup2\n        /* \"#utility.yul\":13695:13701   */\n      dup5\n        /* \"#utility.yul\":13689:13693   */\n      dup5\n        /* \"#utility.yul\":13645:13710   */\n      tag_126\n      jump\t// in\n    tag_280:\n        /* \"#utility.yul\":13580:13716   */\n      pop\n        /* \"#utility.yul\":13527:13716   */\n      pop\n      pop\n      jump\t// out\n        /* \"#utility.yul\":13722:13908   */\n    tag_129:\n        /* \"#utility.yul\":13782:13902   */\n    tag_282:\n        /* \"#utility.yul\":13799:13802   */\n      dup2\n        /* \"#utility.yul\":13792:13797   */\n      dup2\n        /* \"#utility.yul\":13789:13803   */\n      lt\n        /* \"#utility.yul\":13782:13902   */\n      iszero\n      tag_284\n      jumpi\n        /* \"#utility.yul\":13853:13892   */\n      tag_285\n        /* \"#utility.yul\":13890:13891   */\n      0x00\n        /* \"#utility.yul\":13883:13888   */\n      dup3\n        /* \"#utility.yul\":13853:13892   */\n      tag_128\n      jump\t// in\n    tag_285:\n        /* \"#utility.yul\":13826:13827   */\n      0x01\n        /* \"#utility.yul\":13819:13824   */\n      dup2\n        /* \"#utility.yul\":13815:13828   */\n      add\n        /* \"#utility.yul\":13806:13828   */\n      swap1\n      pop\n        /* \"#utility.yul\":13782:13902   */\n      jump(tag_282)\n    tag_284:\n        /* \"#utility.yul\":13722:13908   */\n      pop\n      pop\n      jump\t// out\n        /* \"#utility.yul\":13914:14457   */\n    tag_130:\n        /* \"#utility.yul\":14015:14017   */\n      0x1f\n        /* \"#utility.yul\":14010:14013   */\n      dup3\n        /* \"#utility.yul\":14007:14018   */\n      gt\n        /* \"#utility.yul\":14004:14450   */\n      iszero\n      tag_287\n      jumpi\n        /* \"#utility.yul\":14049:14087   */\n      tag_288\n        /* \"#utility.yul\":14081:14086   */\n      dup2\n        /* \"#utility.yul\":14049:14087   */\n      tag_119\n      jump\t// in\n    tag_288:\n        /* \"#utility.yul\":14133:14162   */\n      tag_289\n        /* \"#utility.yul\":14151:14161   */\n      dup5\n        /* \"#utility.yul\":14133:14162   */\n      tag_120\n      jump\t// in\n    tag_289:\n        /* \"#utility.yul\":14123:14131   */\n      dup2\n        /* \"#utility.yul\":14119:14163   */\n      add\n        /* \"#utility.yul\":14316:14318   */\n      0x20\n        /* \"#utility.yul\":14304:14314   */\n      dup6\n        /* \"#utility.yul\":14301:14319   */\n      lt\n        /* \"#utility.yul\":14298:14347   */\n      iszero\n      tag_290\n      jumpi\n        /* \"#utility.yul\":14337:14345   */\n      dup2\n        /* \"#utility.yul\":14322:14345   */\n      swap1\n      pop\n        /* \"#utility.yul\":14298:14347   */\n    tag_290:\n        /* \"#utility.yul\":14360:14440   */\n      tag_291\n        /* \"#utility.yul\":14416:14438   */\n      tag_292\n        /* \"#utility.yul\":14434:14437   */\n      dup6\n        /* \"#utility.yul\":14416:14438   */\n      tag_120\n      jump\t// in\n    tag_292:\n        /* \"#utility.yul\":14406:14414   */\n      dup4\n        /* \"#utility.yul\":14402:14439   */\n      add\n        /* \"#utility.yul\":14389:14400   */\n      dup3\n        /* \"#utility.yul\":14360:14440   */\n      tag_129\n      jump\t// in\n    tag_291:\n        /* \"#utility.yul\":14019:14450   */\n      pop\n      pop\n        /* \"#utility.yul\":14004:14450   */\n    tag_287:\n        /* \"#utility.yul\":13914:14457   */\n      pop\n      pop\n      pop\n      jump\t// out\n        /* \"#utility.yul\":14463:14580   */\n    tag_131:\n        /* \"#utility.yul\":14517:14525   */\n      0x00\n        /* \"#utility.yul\":14567:14572   */\n      dup3\n        /* \"#utility.yul\":14561:14565   */\n      dup3\n        /* \"#utility.yul\":14557:14573   */\n      shr\n        /* \"#utility.yul\":14536:14573   */\n      swap1\n      pop\n        /* \"#utility.yul\":14463:14580   */\n      swap3\n      swap2\n      pop\n      pop\n      jump\t// out\n        /* \"#utility.yul\":14586:14755   */\n    tag_132:\n        /* \"#utility.yul\":14630:14636   */\n      0x00\n        /* \"#utility.yul\":14663:14714   */\n      tag_295\n        /* \"#utility.yul\":14711:14712   */\n      0x00\n        /* \"#utility.yul\":14707:14713   */\n      not\n        /* \"#utility.yul\":14699:14704   */\n      dup5\n        /* \"#utility.yul\":14696:14697   */\n      0x08\n        /* \"#utility.yul\":14692:14705   */\n      mul\n        /* \"#utility.yul\":14663:14714   */\n      tag_131\n      jump\t// in\n    tag_295:\n        /* \"#utility.yul\":14659:14715   */\n      not\n        /* \"#utility.yul\":14744:14748   */\n      dup1\n        /* \"#utility.yul\":14738:14742   */\n      dup4\n        /* \"#utility.yul\":14734:14749   */\n      and\n        /* \"#utility.yul\":14724:14749   */\n      swap2\n      pop\n        /* \"#utility.yul\":14637:14755   */\n      pop\n        /* \"#utility.yul\":14586:14755   */\n      swap3\n      swap2\n      pop\n      pop\n      jump\t// out\n        /* \"#utility.yul\":14760:15055   */\n    tag_133:\n        /* \"#utility.yul\":14836:14840   */\n      0x00\n        /* \"#utility.yul\":14982:15011   */\n      tag_297\n        /* \"#utility.yul\":15007:15010   */\n      dup4\n        /* \"#utility.yul\":15001:15005   */\n      dup4\n        /* \"#utility.yul\":14982:15011   */\n      tag_132\n      jump\t// in\n    tag_297:\n        /* \"#utility.yul\":14974:15011   */\n      swap2\n      pop\n        /* \"#utility.yul\":15044:15047   */\n      dup3\n        /* \"#utility.yul\":15041:15042   */\n      0x02\n        /* \"#utility.yul\":15037:15048   */\n      mul\n        /* \"#utility.yul\":15031:15035   */\n      dup3\n        /* \"#utility.yul\":15028:15049   */\n      or\n        /* \"#utility.yul\":15020:15049   */\n      swap1\n      pop\n        /* \"#utility.yul\":14760:15055   */\n      swap3\n      swap2\n      pop\n      pop\n      jump\t// out\n        /* \"#utility.yul\":15060:16455   */\n    tag_56:\n        /* \"#utility.yul\":15177:15214   */\n      tag_299\n        /* \"#utility.yul\":15210:15213   */\n      dup3\n        /* \"#utility.yul\":15177:15214   */\n      tag_87\n      jump\t// in\n    tag_299:\n        /* \"#utility.yul\":15279:15297   */\n      0xffffffffffffffff\n        /* \"#utility.yul\":15271:15277   */\n      dup2\n        /* \"#utility.yul\":15268:15298   */\n      gt\n        /* \"#utility.yul\":15265:15321   */\n      iszero\n      tag_300\n      jumpi\n        /* \"#utility.yul\":15301:15319   */\n      tag_301\n      tag_100\n      jump\t// in\n    tag_301:\n        /* \"#utility.yul\":15265:15321   */\n    tag_300:\n        /* \"#utility.yul\":15345:15383   */\n      tag_302\n        /* \"#utility.yul\":15377:15381   */\n      dup3\n        /* \"#utility.yul\":15371:15382   */\n      sload\n        /* \"#utility.yul\":15345:15383   */\n      tag_46\n      jump\t// in\n    tag_302:\n        /* \"#utility.yul\":15430:15497   */\n      tag_303\n        /* \"#utility.yul\":15490:15496   */\n      dup3\n        /* \"#utility.yul\":15482:15488   */\n      dup3\n        /* \"#utility.yul\":15476:15480   */\n      dup6\n        /* \"#utility.yul\":15430:15497   */\n      tag_130\n      jump\t// in\n    tag_303:\n        /* \"#utility.yul\":15524:15525   */\n      0x00\n        /* \"#utility.yul\":15548:15552   */\n      0x20\n        /* \"#utility.yul\":15535:15552   */\n      swap1\n      pop\n        /* \"#utility.yul\":15580:15582   */\n      0x1f\n        /* \"#utility.yul\":15572:15578   */\n      dup4\n        /* \"#utility.yul\":15569:15583   */\n      gt\n        /* \"#utility.yul\":15597:15598   */\n      0x01\n        /* \"#utility.yul\":15592:16210   */\n      dup2\n      eq\n      tag_305\n      jumpi\n        /* \"#utility.yul\":16254:16255   */\n      0x00\n        /* \"#utility.yul\":16271:16277   */\n      dup5\n        /* \"#utility.yul\":16268:16345   */\n      iszero\n      tag_306\n      jumpi\n        /* \"#utility.yul\":16320:16329   */\n      dup3\n        /* \"#utility.yul\":16315:16318   */\n      dup8\n        /* \"#utility.yul\":16311:16330   */\n      add\n        /* \"#utility.yul\":16305:16331   */\n      mload\n        /* \"#utility.yul\":16296:16331   */\n      swap1\n      pop\n        /* \"#utility.yul\":16268:16345   */\n    tag_306:\n        /* \"#utility.yul\":16371:16438   */\n      tag_307\n        /* \"#utility.yul\":16431:16437   */\n      dup6\n        /* \"#utility.yul\":16424:16429   */\n      dup3\n        /* \"#utility.yul\":16371:16438   */\n      tag_133\n      jump\t// in\n    tag_307:\n        /* \"#utility.yul\":16365:16369   */\n      dup7\n        /* \"#utility.yul\":16358:16439   */\n      sstore\n        /* \"#utility.yul\":16227:16449   */\n      pop\n        /* \"#utility.yul\":15562:16449   */\n      jump(tag_304)\n        /* \"#utility.yul\":15592:16210   */\n    tag_305:\n        /* \"#utility.yul\":15644:15648   */\n      0x1f\n        /* \"#utility.yul\":15640:15649   */\n      not\n        /* \"#utility.yul\":15632:15638   */\n      dup5\n        /* \"#utility.yul\":15628:15650   */\n      and\n        /* \"#utility.yul\":15678:15715   */\n      tag_308\n        /* \"#utility.yul\":15710:15714   */\n      dup7\n        /* \"#utility.yul\":15678:15715   */\n      tag_119\n      jump\t// in\n    tag_308:\n        /* \"#utility.yul\":15737:15738   */\n      0x00\n        /* \"#utility.yul\":15751:15959   */\n    tag_309:\n        /* \"#utility.yul\":15765:15772   */\n      dup3\n        /* \"#utility.yul\":15762:15763   */\n      dup2\n        /* \"#utility.yul\":15759:15773   */\n      lt\n        /* \"#utility.yul\":15751:15959   */\n      iszero\n      tag_311\n      jumpi\n        /* \"#utility.yul\":15844:15853   */\n      dup5\n        /* \"#utility.yul\":15839:15842   */\n      dup10\n        /* \"#utility.yul\":15835:15854   */\n      add\n        /* \"#utility.yul\":15829:15855   */\n      mload\n        /* \"#utility.yul\":15821:15827   */\n      dup3\n        /* \"#utility.yul\":15814:15856   */\n      sstore\n        /* \"#utility.yul\":15895:15896   */\n      0x01\n        /* \"#utility.yul\":15887:15893   */\n      dup3\n        /* \"#utility.yul\":15883:15897   */\n      add\n        /* \"#utility.yul\":15873:15897   */\n      swap2\n      pop\n        /* \"#utility.yul\":15942:15944   */\n      0x20\n        /* \"#utility.yul\":15931:15940   */\n      dup6\n        /* \"#utility.yul\":15927:15945   */\n      add\n        /* \"#utility.yul\":15914:15945   */\n      swap5\n      pop\n        /* \"#utility.yul\":15788:15792   */\n      0x20\n        /* \"#utility.yul\":15785:15786   */\n      dup2\n        /* \"#utility.yul\":15781:15793   */\n      add\n        /* \"#utility.yul\":15776:15793   */\n      swap1\n      pop\n        /* \"#utility.yul\":15751:15959   */\n      jump(tag_309)\n    tag_311:\n        /* \"#utility.yul\":15987:15993   */\n      dup7\n        /* \"#utility.yul\":15978:15985   */\n      dup4\n        /* \"#utility.yul\":15975:15994   */\n      lt\n        /* \"#utility.yul\":15972:16151   */\n      iszero\n      tag_312\n      jumpi\n        /* \"#utility.yul\":16045:16054   */\n      dup5\n        /* \"#utility.yul\":16040:16043   */\n      dup10\n        /* \"#utility.yul\":16036:16055   */\n      add\n        /* \"#utility.yul\":16030:16056   */\n      mload\n        /* \"#utility.yul\":16088:16136   */\n      tag_313\n        /* \"#utility.yul\":16130:16134   */\n      0x1f\n        /* \"#utility.yul\":16122:16128   */\n      dup10\n        /* \"#utility.yul\":16118:16135   */\n      and\n        /* \"#utility.yul\":16107:16116   */\n      dup3\n        /* \"#utility.yul\":16088:16136   */\n      tag_132\n      jump\t// in\n    tag_313:\n        /* \"#utility.yul\":16080:16086   */\n      dup4\n        /* \"#utility.yul\":16073:16137   */\n      sstore\n        /* \"#utility.yul\":15995:16151   */\n      pop\n        /* \"#utility.yul\":15972:16151   */\n    tag_312:\n        /* \"#utility.yul\":16197:16198   */\n      0x01\n        /* \"#utility.yul\":16193:16194   */\n      0x02\n        /* \"#utility.yul\":16185:16191   */\n      dup9\n        /* \"#utility.yul\":16181:16195   */\n      mul\n        /* \"#utility.yul\":16177:16199   */\n      add\n        /* \"#utility.yul\":16171:16175   */\n      dup9\n        /* \"#utility.yul\":16164:16200   */\n      sstore\n        /* \"#utility.yul\":15599:16210   */\n      pop\n      pop\n      pop\n        /* \"#utility.yul\":15562:16449   */\n    tag_304:\n      pop\n        /* \"#utility.yul\":15152:16455   */\n      pop\n      pop\n      pop\n        /* \"#utility.yul\":15060:16455   */\n      pop\n      pop\n      jump\t// out\n        /* \"#utility.yul\":16461:16774   */\n    tag_58:\n        /* \"#utility.yul\":16574:16578   */\n      0x00\n        /* \"#utility.yul\":16612:16614   */\n      0x20\n        /* \"#utility.yul\":16601:16610   */\n      dup3\n        /* \"#utility.yul\":16597:16615   */\n      add\n        /* \"#utility.yul\":16589:16615   */\n      swap1\n      pop\n        /* \"#utility.yul\":16661:16670   */\n      dup2\n        /* \"#utility.yul\":16655:16659   */\n      dup2\n        /* \"#utility.yul\":16651:16671   */\n      sub\n        /* \"#utility.yul\":16647:16648   */\n      0x00\n        /* \"#utility.yul\":16636:16645   */\n      dup4\n        /* \"#utility.yul\":16632:16649   */\n      add\n        /* \"#utility.yul\":16625:16672   */\n      mstore\n        /* \"#utility.yul\":16689:16767   */\n      tag_315\n        /* \"#utility.yul\":16762:16766   */\n      dup2\n        /* \"#utility.yul\":16753:16759   */\n      dup5\n        /* \"#utility.yul\":16689:16767   */\n      tag_110\n      jump\t// in\n    tag_315:\n        /* \"#utility.yul\":16681:16767   */\n      swap1\n      pop\n        /* \"#utility.yul\":16461:16774   */\n      swap3\n      swap2\n      pop\n      pop\n      jump\t// out\n        /* \"#utility.yul\":16780:16949   */\n    tag_134:\n        /* \"#utility.yul\":16920:16941   */\n      0x55736572206e6f74207265676973746572656400000000000000000000000000\n        /* \"#utility.yul\":16916:16917   */\n      0x00\n        /* \"#utility.yul\":16908:16914   */\n      dup3\n        /* \"#utility.yul\":16904:16918   */\n      add\n        /* \"#utility.yul\":16897:16942   */\n      mstore\n        /* \"#utility.yul\":16780:16949   */\n      pop\n      jump\t// out\n        /* \"#utility.yul\":16955:17321   */\n    tag_135:\n        /* \"#utility.yul\":17097:17100   */\n      0x00\n        /* \"#utility.yul\":17118:17185   */\n      tag_318\n        /* \"#utility.yul\":17182:17184   */\n      0x13\n        /* \"#utility.yul\":17177:17180   */\n      dup4\n        /* \"#utility.yul\":17118:17185   */\n      tag_109\n      jump\t// in\n    tag_318:\n        /* \"#utility.yul\":17111:17185   */\n      swap2\n      pop\n        /* \"#utility.yul\":17194:17287   */\n      tag_319\n        /* \"#utility.yul\":17283:17286   */\n      dup3\n        /* \"#utility.yul\":17194:17287   */\n      tag_134\n      jump\t// in\n    tag_319:\n        /* \"#utility.yul\":17312:17314   */\n      0x20\n        /* \"#utility.yul\":17307:17310   */\n      dup3\n        /* \"#utility.yul\":17303:17315   */\n      add\n        /* \"#utility.yul\":17296:17315   */\n      swap1\n      pop\n        /* \"#utility.yul\":16955:17321   */\n      swap2\n      swap1\n      pop\n      jump\t// out\n        /* \"#utility.yul\":17327:17746   */\n    tag_62:\n        /* \"#utility.yul\":17493:17497   */\n      0x00\n        /* \"#utility.yul\":17531:17533   */\n      0x20\n        /* \"#utility.yul\":17520:17529   */\n      dup3\n        /* \"#utility.yul\":17516:17534   */\n      add\n        /* \"#utility.yul\":17508:17534   */\n      swap1\n      pop\n        /* \"#utility.yul\":17580:17589   */\n      dup2\n        /* \"#utility.yul\":17574:17578   */\n      dup2\n        /* \"#utility.yul\":17570:17590   */\n      sub\n        /* \"#utility.yul\":17566:17567   */\n      0x00\n        /* \"#utility.yul\":17555:17564   */\n      dup4\n        /* \"#utility.yul\":17551:17568   */\n      add\n        /* \"#utility.yul\":17544:17591   */\n      mstore\n        /* \"#utility.yul\":17608:17739   */\n      tag_321\n        /* \"#utility.yul\":17734:17738   */\n      dup2\n        /* \"#utility.yul\":17608:17739   */\n      tag_135\n      jump\t// in\n    tag_321:\n        /* \"#utility.yul\":17600:17739   */\n      swap1\n      pop\n        /* \"#utility.yul\":17327:17746   */\n      swap2\n      swap1\n      pop\n      jump\t// out\n        /* \"#utility.yul\":17752:17933   */\n    tag_136:\n        /* \"#utility.yul\":17892:17925   */\n      0x5072696365206d7573742062652067726561746572207468616e207a65726f00\n        /* \"#utility.yul\":17888:17889   */\n      0x00\n        /* \"#utility.yul\":17880:17886   */\n      dup3\n        /* \"#utility.yul\":17876:17890   */\n      add\n        /* \"#utility.yul\":17869:17926   */\n      mstore\n        /* \"#utility.yul\":17752:17933   */\n      pop\n      jump\t// out\n        /* \"#utility.yul\":17939:18305   */\n    tag_137:\n        /* \"#utility.yul\":18081:18084   */\n      0x00\n        /* \"#utility.yul\":18102:18169   */\n      tag_324\n        /* \"#utility.yul\":18166:18168   */\n      0x1f\n        /* \"#utility.yul\":18161:18164   */\n      dup4\n        /* \"#utility.yul\":18102:18169   */\n      tag_109\n      jump\t// in\n    tag_324:\n        /* \"#utility.yul\":18095:18169   */\n      swap2\n      pop\n        /* \"#utility.yul\":18178:18271   */\n      tag_325\n        /* \"#utility.yul\":18267:18270   */\n      dup3\n        /* \"#utility.yul\":18178:18271   */\n      tag_136\n      jump\t// in\n    tag_325:\n        /* \"#utility.yul\":18296:18298   */\n      0x20\n        /* \"#utility.yul\":18291:18294   */\n      dup3\n        /* \"#utility.yul\":18287:18299   */\n      add\n        /* \"#utility.yul\":18280:18299   */\n      swap1\n      pop\n        /* \"#utility.yul\":17939:18305   */\n      swap2\n      swap1\n      pop\n      jump\t// out\n        /* \"#utility.yul\":18311:18730   */\n    tag_65:\n        /* \"#utility.yul\":18477:18481   */\n      0x00\n        /* \"#utility.yul\":18515:18517   */\n      0x20\n        /* \"#utility.yul\":18504:18513   */\n      dup3\n        /* \"#utility.yul\":18500:18518   */\n      add\n        /* \"#utility.yul\":18492:18518   */\n      swap1\n      pop\n        /* \"#utility.yul\":18564:18573   */\n      dup2\n        /* \"#utility.yul\":18558:18562   */\n      dup2\n        /* \"#utility.yul\":18554:18574   */\n      sub\n        /* \"#utility.yul\":18550:18551   */\n      0x00\n        /* \"#utility.yul\":18539:18548   */\n      dup4\n        /* \"#utility.yul\":18535:18552   */\n      add\n        /* \"#utility.yul\":18528:18575   */\n      mstore\n        /* \"#utility.yul\":18592:18723   */\n      tag_327\n        /* \"#utility.yul\":18718:18722   */\n      dup2\n        /* \"#utility.yul\":18592:18723   */\n      tag_137\n      jump\t// in\n    tag_327:\n        /* \"#utility.yul\":18584:18723   */\n      swap1\n      pop\n        /* \"#utility.yul\":18311:18730   */\n      swap2\n      swap1\n      pop\n      jump\t// out\n        /* \"#utility.yul\":18736:18916   */\n    tag_138:\n        /* \"#utility.yul\":18784:18861   */\n      0x4e487b7100000000000000000000000000000000000000000000000000000000\n        /* \"#utility.yul\":18781:18782   */\n      0x00\n        /* \"#utility.yul\":18774:18862   */\n      mstore\n        /* \"#utility.yul\":18881:18885   */\n      0x11\n        /* \"#utility.yul\":18878:18879   */\n      0x04\n        /* \"#utility.yul\":18871:18886   */\n      mstore\n        /* \"#utility.yul\":18905:18909   */\n      0x24\n        /* \"#utility.yul\":18902:18903   */\n      0x00\n        /* \"#utility.yul\":18895:18910   */\n      revert\n        /* \"#utility.yul\":18922:19155   */\n    tag_67:\n        /* \"#utility.yul\":18961:18964   */\n      0x00\n        /* \"#utility.yul\":18984:19008   */\n      tag_330\n        /* \"#utility.yul\":19002:19007   */\n      dup3\n        /* \"#utility.yul\":18984:19008   */\n      tag_84\n      jump\t// in\n    tag_330:\n        /* \"#utility.yul\":18975:19008   */\n      swap2\n      pop\n        /* \"#utility.yul\":19030:19096   */\n      0xffffffffffffffffffffffffffffffffffffffffffffffffffffffffffffffff\n        /* \"#utility.yul\":19023:19028   */\n      dup3\n        /* \"#utility.yul\":19020:19097   */\n      sub\n        /* \"#utility.yul\":19017:19120   */\n      tag_331\n      jumpi\n        /* \"#utility.yul\":19100:19118   */\n      tag_332\n      tag_138\n      jump\t// in\n    tag_332:\n        /* \"#utility.yul\":19017:19120   */\n    tag_331:\n        /* \"#utility.yul\":19147:19148   */\n      0x01\n        /* \"#utility.yul\":19140:19145   */\n      dup3\n        /* \"#utility.yul\":19136:19149   */\n      add\n        /* \"#utility.yul\":19129:19149   */\n      swap1\n      pop\n        /* \"#utility.yul\":18922:19155   */\n      swap2\n      swap1\n      pop\n      jump\t// out\n        /* \"#utility.yul\":19161:19584   */\n    tag_70:\n        /* \"#utility.yul\":19302:19306   */\n      0x00\n        /* \"#utility.yul\":19340:19342   */\n      0x40\n        /* \"#utility.yul\":19329:19338   */\n      dup3\n        /* \"#utility.yul\":19325:19343   */\n      add\n        /* \"#utility.yul\":19317:19343   */\n      swap1\n      pop\n        /* \"#utility.yul\":19389:19398   */\n      dup2\n        /* \"#utility.yul\":19383:19387   */\n      dup2\n        /* \"#utility.yul\":19379:19399   */\n      sub\n        /* \"#utility.yul\":19375:19376   */\n      0x00\n        /* \"#utility.yul\":19364:19373   */\n      dup4\n        /* \"#utility.yul\":19360:19377   */\n      add\n        /* \"#utility.yul\":19353:19400   */\n      mstore\n        /* \"#utility.yul\":19417:19495   */\n      tag_334\n        /* \"#utility.yul\":19490:19494   */\n      dup2\n        /* \"#utility.yul\":19481:19487   */\n      dup6\n        /* \"#utility.yul\":19417:19495   */\n      tag_110\n      jump\t// in\n    tag_334:\n        /* \"#utility.yul\":19409:19495   */\n      swap1\n      pop\n        /* \"#utility.yul\":19505:19577   */\n      tag_335\n        /* \"#utility.yul\":19573:19575   */\n      0x20\n        /* \"#utility.yul\":19562:19571   */\n      dup4\n        /* \"#utility.yul\":19558:19576   */\n      add\n        /* \"#utility.yul\":19549:19555   */\n      dup5\n        /* \"#utility.yul\":19505:19577   */\n      tag_97\n      jump\t// in\n    tag_335:\n        /* \"#utility.yul\":19161:19584   */\n      swap4\n      swap3\n      pop\n      pop\n      pop\n      jump\t// out\n\n    auxdata: 0xa2646970667358221220de6668283a38ef3b5fb9dc34ea21116714d5d89fc1b2f03b779c27f854f19e3964736f6c634300081a0033\n}\n",
				"bytecode": {
					"linkReferences": {},
					"object": "6080604052348015600e575f80fd5b506111da8061001c5f395ff3fe608060405234801561000f575f80fd5b5060043610610060575f3560e01c80633129e773146100645780636bfb0d0114610094578063704f1b94146100b25780638511c937146100ce578063a87430ba146100ea578063bfb231d21461011b575b5f80fd5b61007e600480360381019061007991906107fe565b61014d565b60405161008b9190610934565b60405180910390f35b61009c6102b6565b6040516100a99190610963565b60405180910390f35b6100cc60048036038101906100c79190610aa8565b6102bc565b005b6100e860048036038101906100e39190610aef565b610423565b005b61010460048036038101906100ff9190610b73565b610609565b604051610112929190610c00565b60405180910390f35b610135600480360381019061013091906107fe565b6106ba565b60405161014493929190610c3d565b60405180910390f35b610155610785565b5f8211801561016657506002548211155b6101a5576040517f08c379a000000000000000000000000000000000000000000000000000000000815260040161019c90610cc3565b60405180910390fd5b60015f8381526020019081526020015f206040518060600160405290815f820180546101d090610d0e565b80601f01602080910402602001604051908101604052809291908181526020018280546101fc90610d0e565b80156102475780601f1061021e57610100808354040283529160200191610247565b820191905f5260205f20905b81548152906001019060200180831161022a57829003601f168201915b5050505050815260200160018201548152602001600282015f9054906101000a900473ffffffffffffffffffffffffffffffffffffffff1673ffffffffffffffffffffffffffffffffffffffff1673ffffffffffffffffffffffffffffffffffffffff16815250509050919050565b60025481565b5f803373ffffffffffffffffffffffffffffffffffffffff1673ffffffffffffffffffffffffffffffffffffffff1681526020019081526020015f206001015f9054906101000a900460ff1615610348576040517f08c379a000000000000000000000000000000000000000000000000000000000815260040161033f90610d88565b60405180910390fd5b6040518060400160405280828152602001600115158152505f803373ffffffffffffffffffffffffffffffffffffffff1673ffffffffffffffffffffffffffffffffffffffff1681526020019081526020015f205f820151815f0190816103af9190610f43565b506020820151816001015f6101000a81548160ff0219169083151502179055509050503373ffffffffffffffffffffffffffffffffffffffff167f48cac28ad4dc618e15f4c2dd5e97751182f166de97b25618318b2112aa951a2f826040516104189190611012565b60405180910390a250565b5f803373ffffffffffffffffffffffffffffffffffffffff1673ffffffffffffffffffffffffffffffffffffffff1681526020019081526020015f206001015f9054906101000a900460ff166104ae576040517f08c379a00000000000000000000000000000000000000000000000000000000081526004016104a59061107c565b60405180910390fd5b5f81116104f0576040517f08c379a00000000000000000000000000000000000000000000000000000000081526004016104e7906110e4565b60405180910390fd5b60025f8154809291906105029061112f565b919050555060405180606001604052808381526020018281526020013373ffffffffffffffffffffffffffffffffffffffff1681525060015f60025481526020019081526020015f205f820151815f01908161055e9190610f43565b50602082015181600101556040820151816002015f6101000a81548173ffffffffffffffffffffffffffffffffffffffff021916908373ffffffffffffffffffffffffffffffffffffffff1602179055509050503373ffffffffffffffffffffffffffffffffffffffff166002547f16244e47af8a7d2c923faa2cab44315c0514c7aa830682bbb9cc8f0d37ad754884846040516105fd929190611176565b60405180910390a35050565b5f602052805f5260405f205f91509050805f01805461062790610d0e565b80601f016020809104026020016040519081016040528092919081815260200182805461065390610d0e565b801561069e5780601f106106755761010080835404028352916020019161069e565b820191905f5260205f20905b81548152906001019060200180831161068157829003601f168201915b505050505090806001015f9054906101000a900460ff16905082565b6001602052805f5260405f205f91509050805f0180546106d990610d0e565b80601f016020809104026020016040519081016040528092919081815260200182805461070590610d0e565b80156107505780601f1061072757610100808354040283529160200191610750565b820191905f5260205f20905b81548152906001019060200180831161073357829003601f168201915b505050505090806001015490806002015f9054906101000a900473ffffffffffffffffffffffffffffffffffffffff16905083565b6040518060600160405280606081526020015f81526020015f73ffffffffffffffffffffffffffffffffffffffff1681525090565b5f604051905090565b5f80fd5b5f80fd5b5f819050919050565b6107dd816107cb565b81146107e7575f80fd5b50565b5f813590506107f8816107d4565b92915050565b5f60208284031215610813576108126107c3565b5b5f610820848285016107ea565b91505092915050565b5f81519050919050565b5f82825260208201905092915050565b8281835e5f83830152505050565b5f601f19601f8301169050919050565b5f61086b82610829565b6108758185610833565b9350610885818560208601610843565b61088e81610851565b840191505092915050565b6108a2816107cb565b82525050565b5f73ffffffffffffffffffffffffffffffffffffffff82169050919050565b5f6108d1826108a8565b9050919050565b6108e1816108c7565b82525050565b5f606083015f8301518482035f8601526109018282610861565b91505060208301516109166020860182610899565b50604083015161092960408601826108d8565b508091505092915050565b5f6020820190508181035f83015261094c81846108e7565b905092915050565b61095d816107cb565b82525050565b5f6020820190506109765f830184610954565b92915050565b5f80fd5b5f80fd5b7f4e487b71000000000000000000000000000000000000000000000000000000005f52604160045260245ffd5b6109ba82610851565b810181811067ffffffffffffffff821117156109d9576109d8610984565b5b80604052505050565b5f6109eb6107ba565b90506109f782826109b1565b919050565b5f67ffffffffffffffff821115610a1657610a15610984565b5b610a1f82610851565b9050602081019050919050565b828183375f83830152505050565b5f610a4c610a47846109fc565b6109e2565b905082815260208101848484011115610a6857610a67610980565b5b610a73848285610a2c565b509392505050565b5f82601f830112610a8f57610a8e61097c565b5b8135610a9f848260208601610a3a565b91505092915050565b5f60208284031215610abd57610abc6107c3565b5b5f82013567ffffffffffffffff811115610ada57610ad96107c7565b5b610ae684828501610a7b565b91505092915050565b5f8060408385031215610b0557610b046107c3565b5b5f83013567ffffffffffffffff811115610b2257610b216107c7565b5b610b2e85828601610a7b565b9250506020610b3f858286016107ea565b9150509250929050565b610b52816108c7565b8114610b5c575f80fd5b50565b5f81359050610b6d81610b49565b92915050565b5f60208284031215610b8857610b876107c3565b5b5f610b9584828501610b5f565b91505092915050565b5f82825260208201905092915050565b5f610bb882610829565b610bc28185610b9e565b9350610bd2818560208601610843565b610bdb81610851565b840191505092915050565b5f8115159050919050565b610bfa81610be6565b82525050565b5f6040820190508181035f830152610c188185610bae565b9050610c276020830184610bf1565b9392505050565b610c37816108c7565b82525050565b5f6060820190508181035f830152610c558186610bae565b9050610c646020830185610954565b610c716040830184610c2e565b949350505050565b7f4974656d20646f6573206e6f74206578697374000000000000000000000000005f82015250565b5f610cad601383610b9e565b9150610cb882610c79565b602082019050919050565b5f6020820190508181035f830152610cda81610ca1565b9050919050565b7f4e487b71000000000000000000000000000000000000000000000000000000005f52602260045260245ffd5b5f6002820490506001821680610d2557607f821691505b602082108103610d3857610d37610ce1565b5b50919050565b7f5573657220616c726561647920726567697374657265640000000000000000005f82015250565b5f610d72601783610b9e565b9150610d7d82610d3e565b602082019050919050565b5f6020820190508181035f830152610d9f81610d66565b9050919050565b5f819050815f5260205f209050919050565b5f6020601f8301049050919050565b5f82821b905092915050565b5f60088302610e027fffffffffffffffffffffffffffffffffffffffffffffffffffffffffffffffff82610dc7565b610e0c8683610dc7565b95508019841693508086168417925050509392505050565b5f819050919050565b5f610e47610e42610e3d846107cb565b610e24565b6107cb565b9050919050565b5f819050919050565b610e6083610e2d565b610e74610e6c82610e4e565b848454610dd3565b825550505050565b5f90565b610e88610e7c565b610e93818484610e57565b505050565b5b81811015610eb657610eab5f82610e80565b600181019050610e99565b5050565b601f821115610efb57610ecc81610da6565b610ed584610db8565b81016020851015610ee4578190505b610ef8610ef085610db8565b830182610e98565b50505b505050565b5f82821c905092915050565b5f610f1b5f1984600802610f00565b1980831691505092915050565b5f610f338383610f0c565b9150826002028217905092915050565b610f4c82610829565b67ffffffffffffffff811115610f6557610f64610984565b5b610f6f8254610d0e565b610f7a828285610eba565b5f60209050601f831160018114610fab575f8415610f99578287015190505b610fa38582610f28565b86555061100a565b601f198416610fb986610da6565b5f5b82811015610fe057848901518255600182019150602085019450602081019050610fbb565b86831015610ffd5784890151610ff9601f891682610f0c565b8355505b6001600288020188555050505b505050505050565b5f6020820190508181035f83015261102a8184610bae565b905092915050565b7f55736572206e6f742072656769737465726564000000000000000000000000005f82015250565b5f611066601383610b9e565b915061107182611032565b602082019050919050565b5f6020820190508181035f8301526110938161105a565b9050919050565b7f5072696365206d7573742062652067726561746572207468616e207a65726f005f82015250565b5f6110ce601f83610b9e565b91506110d98261109a565b602082019050919050565b5f6020820190508181035f8301526110fb816110c2565b9050919050565b7f4e487b71000000000000000000000000000000000000000000000000000000005f52601160045260245ffd5b5f611139826107cb565b91507fffffffffffffffffffffffffffffffffffffffffffffffffffffffffffffffff820361116b5761116a611102565b5b600182019050919050565b5f6040820190508181035f83015261118e8185610bae565b905061119d6020830184610954565b939250505056fea2646970667358221220de6668283a38ef3b5fb9dc34ea21116714d5d89fc1b2f03b779c27f854f19e3964736f6c634300081a0033",
					"opcodes": "PUSH1 0x80 PUSH1 0x40 MSTORE CALLVALUE DUP1 ISZERO PUSH1 0xE JUMPI PUSH0 DUP1 REVERT JUMPDEST POP PUSH2 0x11DA DUP1 PUSH2 0x1C PUSH0 CODECOPY PUSH0 RETURN INVALID PUSH1 0x80 PUSH1 0x40 MSTORE CALLVALUE DUP1 ISZERO PUSH2 0xF JUMPI PUSH0 DUP1 REVERT JUMPDEST POP PUSH1 0x4 CALLDATASIZE LT PUSH2 0x60 JUMPI PUSH0 CALLDATALOAD PUSH1 0xE0 SHR DUP1 PUSH4 0x3129E773 EQ PUSH2 0x64 JUMPI DUP1 PUSH4 0x6BFB0D01 EQ PUSH2 0x94 JUMPI DUP1 PUSH4 0x704F1B94 EQ PUSH2 0xB2 JUMPI DUP1 PUSH4 0x8511C937 EQ PUSH2 0xCE JUMPI DUP1 PUSH4 0xA87430BA EQ PUSH2 0xEA JUMPI DUP1 PUSH4 0xBFB231D2 EQ PUSH2 0x11B JUMPI JUMPDEST PUSH0 DUP1 REVERT JUMPDEST PUSH2 0x7E PUSH1 0x4 DUP1 CALLDATASIZE SUB DUP2 ADD SWAP1 PUSH2 0x79 SWAP2 SWAP1 PUSH2 0x7FE JUMP JUMPDEST PUSH2 0x14D JUMP JUMPDEST PUSH1 0x40 MLOAD PUSH2 0x8B SWAP2 SWAP1 PUSH2 0x934 JUMP JUMPDEST PUSH1 0x40 MLOAD DUP1 SWAP2 SUB SWAP1 RETURN JUMPDEST PUSH2 0x9C PUSH2 0x2B6 JUMP JUMPDEST PUSH1 0x40 MLOAD PUSH2 0xA9 SWAP2 SWAP1 PUSH2 0x963 JUMP JUMPDEST PUSH1 0x40 MLOAD DUP1 SWAP2 SUB SWAP1 RETURN JUMPDEST PUSH2 0xCC PUSH1 0x4 DUP1 CALLDATASIZE SUB DUP2 ADD SWAP1 PUSH2 0xC7 SWAP2 SWAP1 PUSH2 0xAA8 JUMP JUMPDEST PUSH2 0x2BC JUMP JUMPDEST STOP JUMPDEST PUSH2 0xE8 PUSH1 0x4 DUP1 CALLDATASIZE SUB DUP2 ADD SWAP1 PUSH2 0xE3 SWAP2 SWAP1 PUSH2 0xAEF JUMP JUMPDEST PUSH2 0x423 JUMP JUMPDEST STOP JUMPDEST PUSH2 0x104 PUSH1 0x4 DUP1 CALLDATASIZE SUB DUP2 ADD SWAP1 PUSH2 0xFF SWAP2 SWAP1 PUSH2 0xB73 JUMP JUMPDEST PUSH2 0x609 JUMP JUMPDEST PUSH1 0x40 MLOAD PUSH2 0x112 SWAP3 SWAP2 SWAP1 PUSH2 0xC00 JUMP JUMPDEST PUSH1 0x40 MLOAD DUP1 SWAP2 SUB SWAP1 RETURN JUMPDEST PUSH2 0x135 PUSH1 0x4 DUP1 CALLDATASIZE SUB DUP2 ADD SWAP1 PUSH2 0x130 SWAP2 SWAP1 PUSH2 0x7FE JUMP JUMPDEST PUSH2 0x6BA JUMP JUMPDEST PUSH1 0x40 MLOAD PUSH2 0x144 SWAP4 SWAP3 SWAP2 SWAP1 PUSH2 0xC3D JUMP JUMPDEST PUSH1 0x40 MLOAD DUP1 SWAP2 SUB SWAP1 RETURN JUMPDEST PUSH2 0x155 PUSH2 0x785 JUMP JUMPDEST PUSH0 DUP3 GT DUP1 ISZERO PUSH2 0x166 JUMPI POP PUSH1 0x2 SLOAD DUP3 GT ISZERO JUMPDEST PUSH2 0x1A5 JUMPI PUSH1 0x40 MLOAD PUSH32 0x8C379A000000000000000000000000000000000000000000000000000000000 DUP2 MSTORE PUSH1 0x4 ADD PUSH2 0x19C SWAP1 PUSH2 0xCC3 JUMP JUMPDEST PUSH1 0x40 MLOAD DUP1 SWAP2 SUB SWAP1 REVERT JUMPDEST PUSH1 0x1 PUSH0 DUP4 DUP2 MSTORE PUSH1 0x20 ADD SWAP1 DUP2 MSTORE PUSH1 0x20 ADD PUSH0 KECCAK256 PUSH1 0x40 MLOAD DUP1 PUSH1 0x60 ADD PUSH1 0x40 MSTORE SWAP1 DUP2 PUSH0 DUP3 ADD DUP1 SLOAD PUSH2 0x1D0 SWAP1 PUSH2 0xD0E JUMP JUMPDEST DUP1 PUSH1 0x1F ADD PUSH1 0x20 DUP1 SWAP2 DIV MUL PUSH1 0x20 ADD PUSH1 0x40 MLOAD SWAP1 DUP2 ADD PUSH1 0x40 MSTORE DUP1 SWAP3 SWAP2 SWAP1 DUP2 DUP2 MSTORE PUSH1 0x20 ADD DUP3 DUP1 SLOAD PUSH2 0x1FC SWAP1 PUSH2 0xD0E JUMP JUMPDEST DUP1 ISZERO PUSH2 0x247 JUMPI DUP1 PUSH1 0x1F LT PUSH2 0x21E JUMPI PUSH2 0x100 DUP1 DUP4 SLOAD DIV MUL DUP4 MSTORE SWAP2 PUSH1 0x20 ADD SWAP2 PUSH2 0x247 JUMP JUMPDEST DUP3 ADD SWAP2 SWAP1 PUSH0 MSTORE PUSH1 0x20 PUSH0 KECCAK256 SWAP1 JUMPDEST DUP2 SLOAD DUP2 MSTORE SWAP1 PUSH1 0x1 ADD SWAP1 PUSH1 0x20 ADD DUP1 DUP4 GT PUSH2 0x22A JUMPI DUP3 SWAP1 SUB PUSH1 0x1F AND DUP3 ADD SWAP2 JUMPDEST POP POP POP POP POP DUP2 MSTORE PUSH1 0x20 ADD PUSH1 0x1 DUP3 ADD SLOAD DUP2 MSTORE PUSH1 0x20 ADD PUSH1 0x2 DUP3 ADD PUSH0 SWAP1 SLOAD SWAP1 PUSH2 0x100 EXP SWAP1 DIV PUSH20 0xFFFFFFFFFFFFFFFFFFFFFFFFFFFFFFFFFFFFFFFF AND PUSH20 0xFFFFFFFFFFFFFFFFFFFFFFFFFFFFFFFFFFFFFFFF AND PUSH20 0xFFFFFFFFFFFFFFFFFFFFFFFFFFFFFFFFFFFFFFFF AND DUP2 MSTORE POP POP SWAP1 POP SWAP2 SWAP1 POP JUMP JUMPDEST PUSH1 0x2 SLOAD DUP2 JUMP JUMPDEST PUSH0 DUP1 CALLER PUSH20 0xFFFFFFFFFFFFFFFFFFFFFFFFFFFFFFFFFFFFFFFF AND PUSH20 0xFFFFFFFFFFFFFFFFFFFFFFFFFFFFFFFFFFFFFFFF AND DUP2 MSTORE PUSH1 0x20 ADD SWAP1 DUP2 MSTORE PUSH1 0x20 ADD PUSH0 KECCAK256 PUSH1 0x1 ADD PUSH0 SWAP1 SLOAD SWAP1 PUSH2 0x100 EXP SWAP1 DIV PUSH1 0xFF AND ISZERO PUSH2 0x348 JUMPI PUSH1 0x40 MLOAD PUSH32 0x8C379A000000000000000000000000000000000000000000000000000000000 DUP2 MSTORE PUSH1 0x4 ADD PUSH2 0x33F SWAP1 PUSH2 0xD88 JUMP JUMPDEST PUSH1 0x40 MLOAD DUP1 SWAP2 SUB SWAP1 REVERT JUMPDEST PUSH1 0x40 MLOAD DUP1 PUSH1 0x40 ADD PUSH1 0x40 MSTORE DUP1 DUP3 DUP2 MSTORE PUSH1 0x20 ADD PUSH1 0x1 ISZERO ISZERO DUP2 MSTORE POP PUSH0 DUP1 CALLER PUSH20 0xFFFFFFFFFFFFFFFFFFFFFFFFFFFFFFFFFFFFFFFF AND PUSH20 0xFFFFFFFFFFFFFFFFFFFFFFFFFFFFFFFFFFFFFFFF AND DUP2 MSTORE PUSH1 0x20 ADD SWAP1 DUP2 MSTORE PUSH1 0x20 ADD PUSH0 KECCAK256 PUSH0 DUP3 ADD MLOAD DUP2 PUSH0 ADD SWAP1 DUP2 PUSH2 0x3AF SWAP2 SWAP1 PUSH2 0xF43 JUMP JUMPDEST POP PUSH1 0x20 DUP3 ADD MLOAD DUP2 PUSH1 0x1 ADD PUSH0 PUSH2 0x100 EXP DUP2 SLOAD DUP2 PUSH1 0xFF MUL NOT AND SWAP1 DUP4 ISZERO ISZERO MUL OR SWAP1 SSTORE POP SWAP1 POP POP CALLER PUSH20 0xFFFFFFFFFFFFFFFFFFFFFFFFFFFFFFFFFFFFFFFF AND PUSH32 0x48CAC28AD4DC618E15F4C2DD5E97751182F166DE97B25618318B2112AA951A2F DUP3 PUSH1 0x40 MLOAD PUSH2 0x418 SWAP2 SWAP1 PUSH2 0x1012 JUMP JUMPDEST PUSH1 0x40 MLOAD DUP1 SWAP2 SUB SWAP1 LOG2 POP JUMP JUMPDEST PUSH0 DUP1 CALLER PUSH20 0xFFFFFFFFFFFFFFFFFFFFFFFFFFFFFFFFFFFFFFFF AND PUSH20 0xFFFFFFFFFFFFFFFFFFFFFFFFFFFFFFFFFFFFFFFF AND DUP2 MSTORE PUSH1 0x20 ADD SWAP1 DUP2 MSTORE PUSH1 0x20 ADD PUSH0 KECCAK256 PUSH1 0x1 ADD PUSH0 SWAP1 SLOAD SWAP1 PUSH2 0x100 EXP SWAP1 DIV PUSH1 0xFF AND PUSH2 0x4AE JUMPI PUSH1 0x40 MLOAD PUSH32 0x8C379A000000000000000000000000000000000000000000000000000000000 DUP2 MSTORE PUSH1 0x4 ADD PUSH2 0x4A5 SWAP1 PUSH2 0x107C JUMP JUMPDEST PUSH1 0x40 MLOAD DUP1 SWAP2 SUB SWAP1 REVERT JUMPDEST PUSH0 DUP2 GT PUSH2 0x4F0 JUMPI PUSH1 0x40 MLOAD PUSH32 0x8C379A000000000000000000000000000000000000000000000000000000000 DUP2 MSTORE PUSH1 0x4 ADD PUSH2 0x4E7 SWAP1 PUSH2 0x10E4 JUMP JUMPDEST PUSH1 0x40 MLOAD DUP1 SWAP2 SUB SWAP1 REVERT JUMPDEST PUSH1 0x2 PUSH0 DUP2 SLOAD DUP1 SWAP3 SWAP2 SWAP1 PUSH2 0x502 SWAP1 PUSH2 0x112F JUMP JUMPDEST SWAP2 SWAP1 POP SSTORE POP PUSH1 0x40 MLOAD DUP1 PUSH1 0x60 ADD PUSH1 0x40 MSTORE DUP1 DUP4 DUP2 MSTORE PUSH1 0x20 ADD DUP3 DUP2 MSTORE PUSH1 0x20 ADD CALLER PUSH20 0xFFFFFFFFFFFFFFFFFFFFFFFFFFFFFFFFFFFFFFFF AND DUP2 MSTORE POP PUSH1 0x1 PUSH0 PUSH1 0x2 SLOAD DUP2 MSTORE PUSH1 0x20 ADD SWAP1 DUP2 MSTORE PUSH1 0x20 ADD PUSH0 KECCAK256 PUSH0 DUP3 ADD MLOAD DUP2 PUSH0 ADD SWAP1 DUP2 PUSH2 0x55E SWAP2 SWAP1 PUSH2 0xF43 JUMP JUMPDEST POP PUSH1 0x20 DUP3 ADD MLOAD DUP2 PUSH1 0x1 ADD SSTORE PUSH1 0x40 DUP3 ADD MLOAD DUP2 PUSH1 0x2 ADD PUSH0 PUSH2 0x100 EXP DUP2 SLOAD DUP2 PUSH20 0xFFFFFFFFFFFFFFFFFFFFFFFFFFFFFFFFFFFFFFFF MUL NOT AND SWAP1 DUP4 PUSH20 0xFFFFFFFFFFFFFFFFFFFFFFFFFFFFFFFFFFFFFFFF AND MUL OR SWAP1 SSTORE POP SWAP1 POP POP CALLER PUSH20 0xFFFFFFFFFFFFFFFFFFFFFFFFFFFFFFFFFFFFFFFF AND PUSH1 0x2 SLOAD PUSH32 0x16244E47AF8A7D2C923FAA2CAB44315C0514C7AA830682BBB9CC8F0D37AD7548 DUP5 DUP5 PUSH1 0x40 MLOAD PUSH2 0x5FD SWAP3 SWAP2 SWAP1 PUSH2 0x1176 JUMP JUMPDEST PUSH1 0x40 MLOAD DUP1 SWAP2 SUB SWAP1 LOG3 POP POP JUMP JUMPDEST PUSH0 PUSH1 0x20 MSTORE DUP1 PUSH0 MSTORE PUSH1 0x40 PUSH0 KECCAK256 PUSH0 SWAP2 POP SWAP1 POP DUP1 PUSH0 ADD DUP1 SLOAD PUSH2 0x627 SWAP1 PUSH2 0xD0E JUMP JUMPDEST DUP1 PUSH1 0x1F ADD PUSH1 0x20 DUP1 SWAP2 DIV MUL PUSH1 0x20 ADD PUSH1 0x40 MLOAD SWAP1 DUP2 ADD PUSH1 0x40 MSTORE DUP1 SWAP3 SWAP2 SWAP1 DUP2 DUP2 MSTORE PUSH1 0x20 ADD DUP3 DUP1 SLOAD PUSH2 0x653 SWAP1 PUSH2 0xD0E JUMP JUMPDEST DUP1 ISZERO PUSH2 0x69E JUMPI DUP1 PUSH1 0x1F LT PUSH2 0x675 JUMPI PUSH2 0x100 DUP1 DUP4 SLOAD DIV MUL DUP4 MSTORE SWAP2 PUSH1 0x20 ADD SWAP2 PUSH2 0x69E JUMP JUMPDEST DUP3 ADD SWAP2 SWAP1 PUSH0 MSTORE PUSH1 0x20 PUSH0 KECCAK256 SWAP1 JUMPDEST DUP2 SLOAD DUP2 MSTORE SWAP1 PUSH1 0x1 ADD SWAP1 PUSH1 0x20 ADD DUP1 DUP4 GT PUSH2 0x681 JUMPI DUP3 SWAP1 SUB PUSH1 0x1F AND DUP3 ADD SWAP2 JUMPDEST POP POP POP POP POP SWAP1 DUP1 PUSH1 0x1 ADD PUSH0 SWAP1 SLOAD SWAP1 PUSH2 0x100 EXP SWAP1 DIV PUSH1 0xFF AND SWAP1 POP DUP3 JUMP JUMPDEST PUSH1 0x1 PUSH1 0x20 MSTORE DUP1 PUSH0 MSTORE PUSH1 0x40 PUSH0 KECCAK256 PUSH0 SWAP2 POP SWAP1 POP DUP1 PUSH0 ADD DUP1 SLOAD PUSH2 0x6D9 SWAP1 PUSH2 0xD0E JUMP JUMPDEST DUP1 PUSH1 0x1F ADD PUSH1 0x20 DUP1 SWAP2 DIV MUL PUSH1 0x20 ADD PUSH1 0x40 MLOAD SWAP1 DUP2 ADD PUSH1 0x40 MSTORE DUP1 SWAP3 SWAP2 SWAP1 DUP2 DUP2 MSTORE PUSH1 0x20 ADD DUP3 DUP1 SLOAD PUSH2 0x705 SWAP1 PUSH2 0xD0E JUMP JUMPDEST DUP1 ISZERO PUSH2 0x750 JUMPI DUP1 PUSH1 0x1F LT PUSH2 0x727 JUMPI PUSH2 0x100 DUP1 DUP4 SLOAD DIV MUL DUP4 MSTORE SWAP2 PUSH1 0x20 ADD SWAP2 PUSH2 0x750 JUMP JUMPDEST DUP3 ADD SWAP2 SWAP1 PUSH0 MSTORE PUSH1 0x20 PUSH0 KECCAK256 SWAP1 JUMPDEST DUP2 SLOAD DUP2 MSTORE SWAP1 PUSH1 0x1 ADD SWAP1 PUSH1 0x20 ADD DUP1 DUP4 GT PUSH2 0x733 JUMPI DUP3 SWAP1 SUB PUSH1 0x1F AND DUP3 ADD SWAP2 JUMPDEST POP POP POP POP POP SWAP1 DUP1 PUSH1 0x1 ADD SLOAD SWAP1 DUP1 PUSH1 0x2 ADD PUSH0 SWAP1 SLOAD SWAP1 PUSH2 0x100 EXP SWAP1 DIV PUSH20 0xFFFFFFFFFFFFFFFFFFFFFFFFFFFFFFFFFFFFFFFF AND SWAP1 POP DUP4 JUMP JUMPDEST PUSH1 0x40 MLOAD DUP1 PUSH1 0x60 ADD PUSH1 0x40 MSTORE DUP1 PUSH1 0x60 DUP2 MSTORE PUSH1 0x20 ADD PUSH0 DUP2 MSTORE PUSH1 0x20 ADD PUSH0 PUSH20 0xFFFFFFFFFFFFFFFFFFFFFFFFFFFFFFFFFFFFFFFF AND DUP2 MSTORE POP SWAP1 JUMP JUMPDEST PUSH0 PUSH1 0x40 MLOAD SWAP1 POP SWAP1 JUMP JUMPDEST PUSH0 DUP1 REVERT JUMPDEST PUSH0 DUP1 REVERT JUMPDEST PUSH0 DUP2 SWAP1 POP SWAP2 SWAP1 POP JUMP JUMPDEST PUSH2 0x7DD DUP2 PUSH2 0x7CB JUMP JUMPDEST DUP2 EQ PUSH2 0x7E7 JUMPI PUSH0 DUP1 REVERT JUMPDEST POP JUMP JUMPDEST PUSH0 DUP2 CALLDATALOAD SWAP1 POP PUSH2 0x7F8 DUP2 PUSH2 0x7D4 JUMP JUMPDEST SWAP3 SWAP2 POP POP JUMP JUMPDEST PUSH0 PUSH1 0x20 DUP3 DUP5 SUB SLT ISZERO PUSH2 0x813 JUMPI PUSH2 0x812 PUSH2 0x7C3 JUMP JUMPDEST JUMPDEST PUSH0 PUSH2 0x820 DUP5 DUP3 DUP6 ADD PUSH2 0x7EA JUMP JUMPDEST SWAP2 POP POP SWAP3 SWAP2 POP POP JUMP JUMPDEST PUSH0 DUP2 MLOAD SWAP1 POP SWAP2 SWAP1 POP JUMP JUMPDEST PUSH0 DUP3 DUP3 MSTORE PUSH1 0x20 DUP3 ADD SWAP1 POP SWAP3 SWAP2 POP POP JUMP JUMPDEST DUP3 DUP2 DUP4 MCOPY PUSH0 DUP4 DUP4 ADD MSTORE POP POP POP JUMP JUMPDEST PUSH0 PUSH1 0x1F NOT PUSH1 0x1F DUP4 ADD AND SWAP1 POP SWAP2 SWAP1 POP JUMP JUMPDEST PUSH0 PUSH2 0x86B DUP3 PUSH2 0x829 JUMP JUMPDEST PUSH2 0x875 DUP2 DUP6 PUSH2 0x833 JUMP JUMPDEST SWAP4 POP PUSH2 0x885 DUP2 DUP6 PUSH1 0x20 DUP7 ADD PUSH2 0x843 JUMP JUMPDEST PUSH2 0x88E DUP2 PUSH2 0x851 JUMP JUMPDEST DUP5 ADD SWAP2 POP POP SWAP3 SWAP2 POP POP JUMP JUMPDEST PUSH2 0x8A2 DUP2 PUSH2 0x7CB JUMP JUMPDEST DUP3 MSTORE POP POP JUMP JUMPDEST PUSH0 PUSH20 0xFFFFFFFFFFFFFFFFFFFFFFFFFFFFFFFFFFFFFFFF DUP3 AND SWAP1 POP SWAP2 SWAP1 POP JUMP JUMPDEST PUSH0 PUSH2 0x8D1 DUP3 PUSH2 0x8A8 JUMP JUMPDEST SWAP1 POP SWAP2 SWAP1 POP JUMP JUMPDEST PUSH2 0x8E1 DUP2 PUSH2 0x8C7 JUMP JUMPDEST DUP3 MSTORE POP POP JUMP JUMPDEST PUSH0 PUSH1 0x60 DUP4 ADD PUSH0 DUP4 ADD MLOAD DUP5 DUP3 SUB PUSH0 DUP7 ADD MSTORE PUSH2 0x901 DUP3 DUP3 PUSH2 0x861 JUMP JUMPDEST SWAP2 POP POP PUSH1 0x20 DUP4 ADD MLOAD PUSH2 0x916 PUSH1 0x20 DUP7 ADD DUP3 PUSH2 0x899 JUMP JUMPDEST POP PUSH1 0x40 DUP4 ADD MLOAD PUSH2 0x929 PUSH1 0x40 DUP7 ADD DUP3 PUSH2 0x8D8 JUMP JUMPDEST POP DUP1 SWAP2 POP POP SWAP3 SWAP2 POP POP JUMP JUMPDEST PUSH0 PUSH1 0x20 DUP3 ADD SWAP1 POP DUP2 DUP2 SUB PUSH0 DUP4 ADD MSTORE PUSH2 0x94C DUP2 DUP5 PUSH2 0x8E7 JUMP JUMPDEST SWAP1 POP SWAP3 SWAP2 POP POP JUMP JUMPDEST PUSH2 0x95D DUP2 PUSH2 0x7CB JUMP JUMPDEST DUP3 MSTORE POP POP JUMP JUMPDEST PUSH0 PUSH1 0x20 DUP3 ADD SWAP1 POP PUSH2 0x976 PUSH0 DUP4 ADD DUP5 PUSH2 0x954 JUMP JUMPDEST SWAP3 SWAP2 POP POP JUMP JUMPDEST PUSH0 DUP1 REVERT JUMPDEST PUSH0 DUP1 REVERT JUMPDEST PUSH32 0x4E487B7100000000000000000000000000000000000000000000000000000000 PUSH0 MSTORE PUSH1 0x41 PUSH1 0x4 MSTORE PUSH1 0x24 PUSH0 REVERT JUMPDEST PUSH2 0x9BA DUP3 PUSH2 0x851 JUMP JUMPDEST DUP2 ADD DUP2 DUP2 LT PUSH8 0xFFFFFFFFFFFFFFFF DUP3 GT OR ISZERO PUSH2 0x9D9 JUMPI PUSH2 0x9D8 PUSH2 0x984 JUMP JUMPDEST JUMPDEST DUP1 PUSH1 0x40 MSTORE POP POP POP JUMP JUMPDEST PUSH0 PUSH2 0x9EB PUSH2 0x7BA JUMP JUMPDEST SWAP1 POP PUSH2 0x9F7 DUP3 DUP3 PUSH2 0x9B1 JUMP JUMPDEST SWAP2 SWAP1 POP JUMP JUMPDEST PUSH0 PUSH8 0xFFFFFFFFFFFFFFFF DUP3 GT ISZERO PUSH2 0xA16 JUMPI PUSH2 0xA15 PUSH2 0x984 JUMP JUMPDEST JUMPDEST PUSH2 0xA1F DUP3 PUSH2 0x851 JUMP JUMPDEST SWAP1 POP PUSH1 0x20 DUP2 ADD SWAP1 POP SWAP2 SWAP1 POP JUMP JUMPDEST DUP3 DUP2 DUP4 CALLDATACOPY PUSH0 DUP4 DUP4 ADD MSTORE POP POP POP JUMP JUMPDEST PUSH0 PUSH2 0xA4C PUSH2 0xA47 DUP5 PUSH2 0x9FC JUMP JUMPDEST PUSH2 0x9E2 JUMP JUMPDEST SWAP1 POP DUP3 DUP2 MSTORE PUSH1 0x20 DUP2 ADD DUP5 DUP5 DUP5 ADD GT ISZERO PUSH2 0xA68 JUMPI PUSH2 0xA67 PUSH2 0x980 JUMP JUMPDEST JUMPDEST PUSH2 0xA73 DUP5 DUP3 DUP6 PUSH2 0xA2C JUMP JUMPDEST POP SWAP4 SWAP3 POP POP POP JUMP JUMPDEST PUSH0 DUP3 PUSH1 0x1F DUP4 ADD SLT PUSH2 0xA8F JUMPI PUSH2 0xA8E PUSH2 0x97C JUMP JUMPDEST JUMPDEST DUP2 CALLDATALOAD PUSH2 0xA9F DUP5 DUP3 PUSH1 0x20 DUP7 ADD PUSH2 0xA3A JUMP JUMPDEST SWAP2 POP POP SWAP3 SWAP2 POP POP JUMP JUMPDEST PUSH0 PUSH1 0x20 DUP3 DUP5 SUB SLT ISZERO PUSH2 0xABD JUMPI PUSH2 0xABC PUSH2 0x7C3 JUMP JUMPDEST JUMPDEST PUSH0 DUP3 ADD CALLDATALOAD PUSH8 0xFFFFFFFFFFFFFFFF DUP2 GT ISZERO PUSH2 0xADA JUMPI PUSH2 0xAD9 PUSH2 0x7C7 JUMP JUMPDEST JUMPDEST PUSH2 0xAE6 DUP5 DUP3 DUP6 ADD PUSH2 0xA7B JUMP JUMPDEST SWAP2 POP POP SWAP3 SWAP2 POP POP JUMP JUMPDEST PUSH0 DUP1 PUSH1 0x40 DUP4 DUP6 SUB SLT ISZERO PUSH2 0xB05 JUMPI PUSH2 0xB04 PUSH2 0x7C3 JUMP JUMPDEST JUMPDEST PUSH0 DUP4 ADD CALLDATALOAD PUSH8 0xFFFFFFFFFFFFFFFF DUP2 GT ISZERO PUSH2 0xB22 JUMPI PUSH2 0xB21 PUSH2 0x7C7 JUMP JUMPDEST JUMPDEST PUSH2 0xB2E DUP6 DUP3 DUP7 ADD PUSH2 0xA7B JUMP JUMPDEST SWAP3 POP POP PUSH1 0x20 PUSH2 0xB3F DUP6 DUP3 DUP7 ADD PUSH2 0x7EA JUMP JUMPDEST SWAP2 POP POP SWAP3 POP SWAP3 SWAP1 POP JUMP JUMPDEST PUSH2 0xB52 DUP2 PUSH2 0x8C7 JUMP JUMPDEST DUP2 EQ PUSH2 0xB5C JUMPI PUSH0 DUP1 REVERT JUMPDEST POP JUMP JUMPDEST PUSH0 DUP2 CALLDATALOAD SWAP1 POP PUSH2 0xB6D DUP2 PUSH2 0xB49 JUMP JUMPDEST SWAP3 SWAP2 POP POP JUMP JUMPDEST PUSH0 PUSH1 0x20 DUP3 DUP5 SUB SLT ISZERO PUSH2 0xB88 JUMPI PUSH2 0xB87 PUSH2 0x7C3 JUMP JUMPDEST JUMPDEST PUSH0 PUSH2 0xB95 DUP5 DUP3 DUP6 ADD PUSH2 0xB5F JUMP JUMPDEST SWAP2 POP POP SWAP3 SWAP2 POP POP JUMP JUMPDEST PUSH0 DUP3 DUP3 MSTORE PUSH1 0x20 DUP3 ADD SWAP1 POP SWAP3 SWAP2 POP POP JUMP JUMPDEST PUSH0 PUSH2 0xBB8 DUP3 PUSH2 0x829 JUMP JUMPDEST PUSH2 0xBC2 DUP2 DUP6 PUSH2 0xB9E JUMP JUMPDEST SWAP4 POP PUSH2 0xBD2 DUP2 DUP6 PUSH1 0x20 DUP7 ADD PUSH2 0x843 JUMP JUMPDEST PUSH2 0xBDB DUP2 PUSH2 0x851 JUMP JUMPDEST DUP5 ADD SWAP2 POP POP SWAP3 SWAP2 POP POP JUMP JUMPDEST PUSH0 DUP2 ISZERO ISZERO SWAP1 POP SWAP2 SWAP1 POP JUMP JUMPDEST PUSH2 0xBFA DUP2 PUSH2 0xBE6 JUMP JUMPDEST DUP3 MSTORE POP POP JUMP JUMPDEST PUSH0 PUSH1 0x40 DUP3 ADD SWAP1 POP DUP2 DUP2 SUB PUSH0 DUP4 ADD MSTORE PUSH2 0xC18 DUP2 DUP6 PUSH2 0xBAE JUMP JUMPDEST SWAP1 POP PUSH2 0xC27 PUSH1 0x20 DUP4 ADD DUP5 PUSH2 0xBF1 JUMP JUMPDEST SWAP4 SWAP3 POP POP POP JUMP JUMPDEST PUSH2 0xC37 DUP2 PUSH2 0x8C7 JUMP JUMPDEST DUP3 MSTORE POP POP JUMP JUMPDEST PUSH0 PUSH1 0x60 DUP3 ADD SWAP1 POP DUP2 DUP2 SUB PUSH0 DUP4 ADD MSTORE PUSH2 0xC55 DUP2 DUP7 PUSH2 0xBAE JUMP JUMPDEST SWAP1 POP PUSH2 0xC64 PUSH1 0x20 DUP4 ADD DUP6 PUSH2 0x954 JUMP JUMPDEST PUSH2 0xC71 PUSH1 0x40 DUP4 ADD DUP5 PUSH2 0xC2E JUMP JUMPDEST SWAP5 SWAP4 POP POP POP POP JUMP JUMPDEST PUSH32 0x4974656D20646F6573206E6F7420657869737400000000000000000000000000 PUSH0 DUP3 ADD MSTORE POP JUMP JUMPDEST PUSH0 PUSH2 0xCAD PUSH1 0x13 DUP4 PUSH2 0xB9E JUMP JUMPDEST SWAP2 POP PUSH2 0xCB8 DUP3 PUSH2 0xC79 JUMP JUMPDEST PUSH1 0x20 DUP3 ADD SWAP1 POP SWAP2 SWAP1 POP JUMP JUMPDEST PUSH0 PUSH1 0x20 DUP3 ADD SWAP1 POP DUP2 DUP2 SUB PUSH0 DUP4 ADD MSTORE PUSH2 0xCDA DUP2 PUSH2 0xCA1 JUMP JUMPDEST SWAP1 POP SWAP2 SWAP1 POP JUMP JUMPDEST PUSH32 0x4E487B7100000000000000000000000000000000000000000000000000000000 PUSH0 MSTORE PUSH1 0x22 PUSH1 0x4 MSTORE PUSH1 0x24 PUSH0 REVERT JUMPDEST PUSH0 PUSH1 0x2 DUP3 DIV SWAP1 POP PUSH1 0x1 DUP3 AND DUP1 PUSH2 0xD25 JUMPI PUSH1 0x7F DUP3 AND SWAP2 POP JUMPDEST PUSH1 0x20 DUP3 LT DUP2 SUB PUSH2 0xD38 JUMPI PUSH2 0xD37 PUSH2 0xCE1 JUMP JUMPDEST JUMPDEST POP SWAP2 SWAP1 POP JUMP JUMPDEST PUSH32 0x5573657220616C72656164792072656769737465726564000000000000000000 PUSH0 DUP3 ADD MSTORE POP JUMP JUMPDEST PUSH0 PUSH2 0xD72 PUSH1 0x17 DUP4 PUSH2 0xB9E JUMP JUMPDEST SWAP2 POP PUSH2 0xD7D DUP3 PUSH2 0xD3E JUMP JUMPDEST PUSH1 0x20 DUP3 ADD SWAP1 POP SWAP2 SWAP1 POP JUMP JUMPDEST PUSH0 PUSH1 0x20 DUP3 ADD SWAP1 POP DUP2 DUP2 SUB PUSH0 DUP4 ADD MSTORE PUSH2 0xD9F DUP2 PUSH2 0xD66 JUMP JUMPDEST SWAP1 POP SWAP2 SWAP1 POP JUMP JUMPDEST PUSH0 DUP2 SWAP1 POP DUP2 PUSH0 MSTORE PUSH1 0x20 PUSH0 KECCAK256 SWAP1 POP SWAP2 SWAP1 POP JUMP JUMPDEST PUSH0 PUSH1 0x20 PUSH1 0x1F DUP4 ADD DIV SWAP1 POP SWAP2 SWAP1 POP JUMP JUMPDEST PUSH0 DUP3 DUP3 SHL SWAP1 POP SWAP3 SWAP2 POP POP JUMP JUMPDEST PUSH0 PUSH1 0x8 DUP4 MUL PUSH2 0xE02 PUSH32 0xFFFFFFFFFFFFFFFFFFFFFFFFFFFFFFFFFFFFFFFFFFFFFFFFFFFFFFFFFFFFFFFF DUP3 PUSH2 0xDC7 JUMP JUMPDEST PUSH2 0xE0C DUP7 DUP4 PUSH2 0xDC7 JUMP JUMPDEST SWAP6 POP DUP1 NOT DUP5 AND SWAP4 POP DUP1 DUP7 AND DUP5 OR SWAP3 POP POP POP SWAP4 SWAP3 POP POP POP JUMP JUMPDEST PUSH0 DUP2 SWAP1 POP SWAP2 SWAP1 POP JUMP JUMPDEST PUSH0 PUSH2 0xE47 PUSH2 0xE42 PUSH2 0xE3D DUP5 PUSH2 0x7CB JUMP JUMPDEST PUSH2 0xE24 JUMP JUMPDEST PUSH2 0x7CB JUMP JUMPDEST SWAP1 POP SWAP2 SWAP1 POP JUMP JUMPDEST PUSH0 DUP2 SWAP1 POP SWAP2 SWAP1 POP JUMP JUMPDEST PUSH2 0xE60 DUP4 PUSH2 0xE2D JUMP JUMPDEST PUSH2 0xE74 PUSH2 0xE6C DUP3 PUSH2 0xE4E JUMP JUMPDEST DUP5 DUP5 SLOAD PUSH2 0xDD3 JUMP JUMPDEST DUP3 SSTORE POP POP POP POP JUMP JUMPDEST PUSH0 SWAP1 JUMP JUMPDEST PUSH2 0xE88 PUSH2 0xE7C JUMP JUMPDEST PUSH2 0xE93 DUP2 DUP5 DUP5 PUSH2 0xE57 JUMP JUMPDEST POP POP POP JUMP JUMPDEST JUMPDEST DUP2 DUP2 LT ISZERO PUSH2 0xEB6 JUMPI PUSH2 0xEAB PUSH0 DUP3 PUSH2 0xE80 JUMP JUMPDEST PUSH1 0x1 DUP2 ADD SWAP1 POP PUSH2 0xE99 JUMP JUMPDEST POP POP JUMP JUMPDEST PUSH1 0x1F DUP3 GT ISZERO PUSH2 0xEFB JUMPI PUSH2 0xECC DUP2 PUSH2 0xDA6 JUMP JUMPDEST PUSH2 0xED5 DUP5 PUSH2 0xDB8 JUMP JUMPDEST DUP2 ADD PUSH1 0x20 DUP6 LT ISZERO PUSH2 0xEE4 JUMPI DUP2 SWAP1 POP JUMPDEST PUSH2 0xEF8 PUSH2 0xEF0 DUP6 PUSH2 0xDB8 JUMP JUMPDEST DUP4 ADD DUP3 PUSH2 0xE98 JUMP JUMPDEST POP POP JUMPDEST POP POP POP JUMP JUMPDEST PUSH0 DUP3 DUP3 SHR SWAP1 POP SWAP3 SWAP2 POP POP JUMP JUMPDEST PUSH0 PUSH2 0xF1B PUSH0 NOT DUP5 PUSH1 0x8 MUL PUSH2 0xF00 JUMP JUMPDEST NOT DUP1 DUP4 AND SWAP2 POP POP SWAP3 SWAP2 POP POP JUMP JUMPDEST PUSH0 PUSH2 0xF33 DUP4 DUP4 PUSH2 0xF0C JUMP JUMPDEST SWAP2 POP DUP3 PUSH1 0x2 MUL DUP3 OR SWAP1 POP SWAP3 SWAP2 POP POP JUMP JUMPDEST PUSH2 0xF4C DUP3 PUSH2 0x829 JUMP JUMPDEST PUSH8 0xFFFFFFFFFFFFFFFF DUP2 GT ISZERO PUSH2 0xF65 JUMPI PUSH2 0xF64 PUSH2 0x984 JUMP JUMPDEST JUMPDEST PUSH2 0xF6F DUP3 SLOAD PUSH2 0xD0E JUMP JUMPDEST PUSH2 0xF7A DUP3 DUP3 DUP6 PUSH2 0xEBA JUMP JUMPDEST PUSH0 PUSH1 0x20 SWAP1 POP PUSH1 0x1F DUP4 GT PUSH1 0x1 DUP2 EQ PUSH2 0xFAB JUMPI PUSH0 DUP5 ISZERO PUSH2 0xF99 JUMPI DUP3 DUP8 ADD MLOAD SWAP1 POP JUMPDEST PUSH2 0xFA3 DUP6 DUP3 PUSH2 0xF28 JUMP JUMPDEST DUP7 SSTORE POP PUSH2 0x100A JUMP JUMPDEST PUSH1 0x1F NOT DUP5 AND PUSH2 0xFB9 DUP7 PUSH2 0xDA6 JUMP JUMPDEST PUSH0 JUMPDEST DUP3 DUP2 LT ISZERO PUSH2 0xFE0 JUMPI DUP5 DUP10 ADD MLOAD DUP3 SSTORE PUSH1 0x1 DUP3 ADD SWAP2 POP PUSH1 0x20 DUP6 ADD SWAP5 POP PUSH1 0x20 DUP2 ADD SWAP1 POP PUSH2 0xFBB JUMP JUMPDEST DUP7 DUP4 LT ISZERO PUSH2 0xFFD JUMPI DUP5 DUP10 ADD MLOAD PUSH2 0xFF9 PUSH1 0x1F DUP10 AND DUP3 PUSH2 0xF0C JUMP JUMPDEST DUP4 SSTORE POP JUMPDEST PUSH1 0x1 PUSH1 0x2 DUP9 MUL ADD DUP9 SSTORE POP POP POP JUMPDEST POP POP POP POP POP POP JUMP JUMPDEST PUSH0 PUSH1 0x20 DUP3 ADD SWAP1 POP DUP2 DUP2 SUB PUSH0 DUP4 ADD MSTORE PUSH2 0x102A DUP2 DUP5 PUSH2 0xBAE JUMP JUMPDEST SWAP1 POP SWAP3 SWAP2 POP POP JUMP JUMPDEST PUSH32 0x55736572206E6F74207265676973746572656400000000000000000000000000 PUSH0 DUP3 ADD MSTORE POP JUMP JUMPDEST PUSH0 PUSH2 0x1066 PUSH1 0x13 DUP4 PUSH2 0xB9E JUMP JUMPDEST SWAP2 POP PUSH2 0x1071 DUP3 PUSH2 0x1032 JUMP JUMPDEST PUSH1 0x20 DUP3 ADD SWAP1 POP SWAP2 SWAP1 POP JUMP JUMPDEST PUSH0 PUSH1 0x20 DUP3 ADD SWAP1 POP DUP2 DUP2 SUB PUSH0 DUP4 ADD MSTORE PUSH2 0x1093 DUP2 PUSH2 0x105A JUMP JUMPDEST SWAP1 POP SWAP2 SWAP1 POP JUMP JUMPDEST PUSH32 0x5072696365206D7573742062652067726561746572207468616E207A65726F00 PUSH0 DUP3 ADD MSTORE POP JUMP JUMPDEST PUSH0 PUSH2 0x10CE PUSH1 0x1F DUP4 PUSH2 0xB9E JUMP JUMPDEST SWAP2 POP PUSH2 0x10D9 DUP3 PUSH2 0x109A JUMP JUMPDEST PUSH1 0x20 DUP3 ADD SWAP1 POP SWAP2 SWAP1 POP JUMP JUMPDEST PUSH0 PUSH1 0x20 DUP3 ADD SWAP1 POP DUP2 DUP2 SUB PUSH0 DUP4 ADD MSTORE PUSH2 0x10FB DUP2 PUSH2 0x10C2 JUMP JUMPDEST SWAP1 POP SWAP2 SWAP1 POP JUMP JUMPDEST PUSH32 0x4E487B7100000000000000000000000000000000000000000000000000000000 PUSH0 MSTORE PUSH1 0x11 PUSH1 0x4 MSTORE PUSH1 0x24 PUSH0 REVERT JUMPDEST PUSH0 PUSH2 0x1139 DUP3 PUSH2 0x7CB JUMP JUMPDEST SWAP2 POP PUSH32 0xFFFFFFFFFFFFFFFFFFFFFFFFFFFFFFFFFFFFFFFFFFFFFFFFFFFFFFFFFFFFFFFF DUP3 SUB PUSH2 0x116B JUMPI PUSH2 0x116A PUSH2 0x1102 JUMP JUMPDEST JUMPDEST PUSH1 0x1 DUP3 ADD SWAP1 POP SWAP2 SWAP1 POP JUMP JUMPDEST PUSH0 PUSH1 0x40 DUP3 ADD SWAP1 POP DUP2 DUP2 SUB PUSH0 DUP4 ADD MSTORE PUSH2 0x118E DUP2 DUP6 PUSH2 0xBAE JUMP JUMPDEST SWAP1 POP PUSH2 0x119D PUSH1 0x20 DUP4 ADD DUP5 PUSH2 0x954 JUMP JUMPDEST SWAP4 SWAP3 POP POP POP JUMP INVALID LOG2 PUSH5 0x6970667358 0x22 SLT KECCAK256 0xDE PUSH7 0x68283A38EF3B5F 0xB9 0xDC CALLVALUE 0xEA 0x21 GT PUSH8 0x14D5D89FC1B2F03B PUSH24 0x9C27F854F19E3964736F6C634300081A0033000000000000 "
				},
				"gasEstimates": {
					"creation": {
						"codeDepositCost": "914000",
						"executionCost": "946",
						"totalCost": "914946"
					},
					"external": {
						"getItem(uint256)": "infinite",
						"itemCount()": "2425",
						"items(uint256)": "infinite",
						"listItem(string,uint256)": "infinite",
						"registerUser(string)": "infinite",
						"users(address)": "infinite"
					}
				},
				"methodIdentifiers": {
					"getItem(uint256)": "3129e773",
					"itemCount()": "6bfb0d01",
					"items(uint256)": "bfb231d2",
					"listItem(string,uint256)": "8511c937",
					"registerUser(string)": "704f1b94",
					"users(address)": "a87430ba"
				}
			},
			"storageLayout": {
				"storage": [
					{
						"astId": 18,
						"contract": "contracts/myContract.sol:Marketplace",
						"label": "users",
						"offset": 0,
						"slot": "0",
						"type": "t_mapping(t_address,t_struct(User)13_storage)"
					},
					{
						"astId": 23,
						"contract": "contracts/myContract.sol:Marketplace",
						"label": "items",
						"offset": 0,
						"slot": "1",
						"type": "t_mapping(t_uint256,t_struct(Item)8_storage)"
					},
					{
						"astId": 25,
						"contract": "contracts/myContract.sol:Marketplace",
						"label": "itemCount",
						"offset": 0,
						"slot": "2",
						"type": "t_uint256"
					}
				],
				"types": {
					"t_address": {
						"encoding": "inplace",
						"label": "address",
						"numberOfBytes": "20"
					},
					"t_bool": {
						"encoding": "inplace",
						"label": "bool",
						"numberOfBytes": "1"
					},
					"t_mapping(t_address,t_struct(User)13_storage)": {
						"encoding": "mapping",
						"key": "t_address",
						"label": "mapping(address => struct Marketplace.User)",
						"numberOfBytes": "32",
						"value": "t_struct(User)13_storage"
					},
					"t_mapping(t_uint256,t_struct(Item)8_storage)": {
						"encoding": "mapping",
						"key": "t_uint256",
						"label": "mapping(uint256 => struct Marketplace.Item)",
						"numberOfBytes": "32",
						"value": "t_struct(Item)8_storage"
					},
					"t_string_storage": {
						"encoding": "bytes",
						"label": "string",
						"numberOfBytes": "32"
					},
					"t_struct(Item)8_storage": {
						"encoding": "inplace",
						"label": "struct Marketplace.Item",
						"members": [
							{
								"astId": 3,
								"contract": "contracts/myContract.sol:Marketplace",
								"label": "name",
								"offset": 0,
								"slot": "0",
								"type": "t_string_storage"
							},
							{
								"astId": 5,
								"contract": "contracts/myContract.sol:Marketplace",
								"label": "price",
								"offset": 0,
								"slot": "1",
								"type": "t_uint256"
							},
							{
								"astId": 7,
								"contract": "contracts/myContract.sol:Marketplace",
								"label": "seller",
								"offset": 0,
								"slot": "2",
								"type": "t_address"
							}
						],
						"numberOfBytes": "96"
					},
					"t_struct(User)13_storage": {
						"encoding": "inplace",
						"label": "struct Marketplace.User",
						"members": [
							{
								"astId": 10,
								"contract": "contracts/myContract.sol:Marketplace",
								"label": "username",
								"offset": 0,
								"slot": "0",
								"type": "t_string_storage"
							},
							{
								"astId": 12,
								"contract": "contracts/myContract.sol:Marketplace",
								"label": "isRegistered",
								"offset": 0,
								"slot": "1",
								"type": "t_bool"
							}
						],
						"numberOfBytes": "64"
					},
					"t_uint256": {
						"encoding": "inplace",
						"label": "uint256",
						"numberOfBytes": "32"
					}
				}
			},
			"userdoc": {
				"kind": "user",
				"methods": {},
				"version": 1
			}
		}
	}
}